:020000041004E6
:1000000078230020D96F05109570051097700510A2
:1000100000000000000000000000000000000000E0
:10002000000000000000000000000000031E04109B
:1000300000000000000000007B1E0410D32104100B
:10004000DB250410632704100000000000000000FE
:10005000D72F0410B7400410BB400410DF40041039
:100060000000000000000000000000000000000090
:100070000000000013450410434504109747041086
:10008000000000009B520410C55A051023540410B0
:100090000B57041023570410B76F04109F760410F9
:1000A0000000000000000000000000000000000050
:1000B0000000000000000000000000000000000040
:1000C000E022520080180268914203D34368D2189C
:1000D000914202D380680028F5D170471848016822
:1000E00000290ED180214902816009094160002167
:1000F000C943C160016104214161124A1160124982
:1001000001600120704730B407230C0008341C4202
:1001100001D1002304E008240D000835641B2340AE
:10012000C918D21A8161C260012313434B6028238E
:1001300089184B6002490969C16130BC70470000F1
:10014000D84500201C4300206859883CF0B587B092
:10015000040007200D000835054205D008250E00D3
:100160000836AD1B054049190291110008310142C2
:1001700005D0082115000835491B08401218170042
:100180000298C018039005460298381AC01A0190C8
:100190000326334302984360BD4201D301F0ECFAD9
:1001A0003879C00701D401F0E7FA0198102801D28C
:1001B00001F0E2FAA069874208D1E068019940188D
:1001C000E060A5610121014369606AE160698742DD
:1001D00009D1A06801994018A0606561012101431F
:1001E000696028505DE178680640012E00D0B9E0D2
:1001F000072188430590C00820283CD2B9680091A7
:10020000FE680490B74201D101F0B6FA0098874227
:1002100001D101F0B1FA7868072188430499C90037
:10022000884201D001F0A8FA0498C0002018009973
:1002300002002832914207D02269914200D289E01F
:10024000C968B94200D085E000998E4206D1206885
:100250000121049A9140884320607DE02830864245
:1002600005D02069864275D3B068B84272D1CE609D
:100270000098B06070E0B8690090FE68BE420CD093
:10028000B8682169884225D3C168B94222D1B168D2
:10029000B9421FD1C660B0601EE038001430066855
:1002A000002E07D1380010300668002E14D001E06F
:1002B00008000668310014310A68002AF8D13100BC
:1002C00010310A68002AF3D12169884202D3002143
:1002D000016001E001F050FA009800283CD0F86974
:1002E0008000201898214900401801688F4209D1E8
:1002F0000660002E14D160680121FA69914088439C
:10030000606029E000982169884207D30069B842FB
:10031000009801D1066103E0466101E001F02CFA8A
:10032000002E19D02069864214D30099B161396931
:10033000002906D0814202D331618E6101E001F0D3
:100340001BFA7869002807D02169884202D37061BE
:10035000866101E001F010FA05983F1801980599AF
:100360004018019078680121884378600198014322
:100370006960019828500198C008202822D2009076
:10038000C000271828373E000198102801D201F03C
:10039000F3F9206800990200CA40D10705D4012171
:1003A000009A91400143216007E0B86821698842C2
:1003B00001D3060001E001F0DFF9BD60F560AE6039
:1003C000EF606EE00198000A01D1002225E0802153
:1003D0004902884201D31F221FE0FF21C94341186F
:1003E000090C082211408840304A8218120C04235C
:1003F0001A4090402E4BC3181B0C022633400E2689
:10040000711A891AC91A9840C00B08184100019A3C
:10041000C01DC240D007C00F0A18900020189821B4
:1004200049004118EA6100206861286163681E0084
:10043000D640F60705D401209040184360600D6057
:100440001BE009681F2A019B05D019265208B21A21
:10045000934000E011004A680726B243019EB24271
:1004600010D0DA0F92008E1810365B003268002A26
:10047000F0D12069864212D33560A961ED600398FE
:10048000A8600EE08A682369994208D39A4206D38D
:10049000D560039B8B60AA60E960A86101E001F070
:1004A0006BF90298083007B0F0BD000000F0FFFFC4
:1004B00000C0FFFFF2B586B004008F480068002836
:1004C00001D1FFF70BFE8C488168069840182F3049
:1004D000491E88430699814200D3DCE1D8214900B6
:1004E00061188968002909D0D8225200A258101832
:1004F000824200D3CFE1814200D2CCE101F046F943
:10050000002800D1C7E1009007680021C943884254
:1005100000D1C0E1D82040002058C019D82149009E
:10052000605061184968814200D20100D820400023
:1005300020184160A069002839D12069002802D024
:100540000099814201D2009820610098D821490089
:1005500061180861D8204000201847610026D82083
:1005600040002018C6616448006860620020C043F3
:10057000206220002830C06001468160083141615E
:100580000161B61C1030202EF5D3C448844203D13B
:10059000283F3A00009926E0201F00680721884381
:1005A000211808390098C019421A283A1BE0E020A7
:1005B0004000201800E08068002818D000990268E8
:1005C0004368D2189142F6D1017B09070FD4A16983
:1005D000026891420BD3D218914208D2D9194160D6
:1005E000E068C219A1692000FFF78DFD3FE1009886
:1005F0002169884200D22061E02040002018009943
:10060000C91900E08068002810D002688A42F9D138
:10061000017B09070AD4009901604168C91941604A
:10062000069B00992000FFF791FD35E1A06903903A
:10063000054629002000FFF743FD016840680818BF
:10064000059027380026410701D1002003E008214A
:10065000081A4007400F059908182F382900103153
:10066000884201D2019500E0019001981830029073
:1006700004963800283800990831490701D1002133
:1006800005E00821009A0832891A4907490F401AE3
:10069000009A5118A161E060012202434A602822B9
:1006A0000818426014480069E0610198083040076A
:1006B00001D001F061F81B200199486001980830D1
:1006C000E02149006118102201F08AF80098D82131
:1006D000490061180861D820400020184761D820DF
:1006E00040002018C66101980830D82149006118DF
:1006F0008861059805E000BFD84500200299091DD2
:1007000002910721029A51600499491C04910299AF
:1007100008318142F2D30498022801DA01F02CF862
:100720000198A84200D1A2E0411B426801239A43EC
:10073000426001220A436A600160C808202821D271
:100740000090C000271828373E00102901D201F080
:1007500013F8206800990200CA40D10705D401218E
:10076000009A91400143216007E0B86821698842FE
:1007700001D3060001E000F0FFFFBD60F560AE6050
:10078000EF6074E0080A01D1002228E01A049042C8
:1007900001D31F2223E0FF22D2438218120C082328
:1007A0001A40009290403E4A8218120C04231A40CC
:1007B00090403C4BC3181B0C02273B4001930E2377
:1007C000009FDB1B9A1A019BD21A9840C00B10188D
:1007D0004200C01D0B00C340D807C00F1218900084
:1007E000201898235B00C0180090EA616E612E61AA
:1007F00060680300D340DB0707D401219140014327
:1008000061600098056000981DE0009800681F2A4C
:1008100001D10A0006E0192352089B1A0A009A40E7
:1008200000E0380043680727BB438B4210D0D30F4A
:100830009B00C318103352001F68002FF1D12169AB
:100840008B4212D31D60A861ED600398A8600EE092
:1008500081682269904208D3914206D3CD60039A01
:100860008260A960E860AE6101E000F085FFE068A9
:10087000069981420FD2401AE060A169069A8A184F
:10088000A2610123034353600698032202434A6096
:100890000800083000E0002007B0F0BD60410020F3
:1008A00000F0FFFF00C0FFFFF2B584B0040000209D
:1008B000009004984542000A25D0802149028842D0
:1008C00001D31F201FE0FF21C9434118090C082252
:1008D00011408840B34A8218120C04231A409040F9
:1008E000114BC3181B0C022633400E26711A891AAD
:1008F000C91A9840C00B08184100049AC01DC24094
:10090000D007C00F081881006118982252008B5838
:10091000002B28D01F28049A03D019214608891BD0
:100920008A40002103E000BF00C0FFFF52005E6864
:100930000727BE43049FF61BAE4202D20093350048
:100940000CD05E69D70FBF00DB191B69002E02D0E7
:100950009E4200D03100002BE8D10B00002B3FD18C
:10096000009900293ED101210122824050004342DA
:10097000034362681A4000D178E150421040401EA3
:10098000020B10231A40D040430908263340D840B8
:10099000860804273E400296F040460802273E4063
:1009A0000196F04046083140D218029BD218019BB4
:1009B000D2185218C84010188000201898214900F9
:1009C00043580DE003005868072188430499401AF2
:1009D000A84201D20500009318690028F2D15B6992
:1009E000002BF0D10098002800D13FE1A0680499C5
:1009F000401A854200D339E1009E2069864200D228
:100A000032E16818029000984068072188430299F3
:100A1000884201D000F0B0FE009804994718BE4209
:100A200000D321E1806901900098C66886420DD00C
:100A300080682169884225D3C168009A914221D1FA
:100A4000B16891421ED1C660B0601DE014300668E6
:100A5000002E07D1009810300668002E14D001E057
:100A600008000668310014310A68002AF8D1310004
:100A700010310A68002AF3D12169884202D300218B
:100A8000016001E000F078FE0198002843D0009852
:100A9000C069800020189821490040180099026818
:100AA00091420AD10660002E16D160680121009A99
:100AB000D2699140884360602DE0019821698842A5
:100AC00008D3006900998842019801D1066103E0CA
:100AD000466101E000F050FE002E1CD020698642E5
:100AE00017D30198B06100980069002807D02169E8
:100AF000884202D33061866101E000F03DFE00983B
:100B00004069002807D02169884202D3706186615C
:100B100001E000F031FE03200121102D0AD2029ADB
:100B20001043009A50600098029A8018426811435E
:100B3000416096E0049A1043009A506001202843D7
:100B400078607D51E808202819D2C200A6182836FE
:100B5000350022681300C3400B4003D1814011438C
:100B6000216007E0B0682169884201D3050001E0F7
:100B700000F002FEB760EF60BD60FE6071E0280A21
:100B800001D100222AE00A04904201D31F2225E06D
:100B9000FF22D2438218120C08231A40019290407F
:100BA000004A01E000F0FFFF8218120C04231A40F3
:100BB0009040304BC3181B0C0226334002930E2387
:100BC000019E9B1B9A1A029BD21A9840C00B1018C8
:100BD0004200C01D2B00C3400B40D21890002018CB
:100BE00098235B00C018FA6100237B613B61636856
:100BF0001E00D6400E4004D1914019436160076049
:100C00001CE000681F2A01D1290006E019215208C2
:100C10008A1A2900914000E01000426807239A4395
:100C2000AA420FD0CA0F92008318103349001A68E5
:100C3000002AF1D121698B4211D31F60B861FF6096
:100C4000BF600EE081682269904208D3914206D3CA
:100C5000CF608760B960F8600020B86101E000F003
:100C60008BFD0098083002E000F086FD002005B002
:100C7000F0BD000000C0FFFFF2B586B0040061685F
:100C800048420840401E010B10221140C840420952
:100C900008231A40D040830804252B40D84045083B
:100CA00002263540E8408607F60F8918C918491909
:100CB0008919F040081880002018982149004058F0
:100CC0000700416807229143069A8D1A09E008003F
:100CD000416807229143069A891AA94201D20D0060
:100CE000070001690029F2D140690028F0D120698C
:100CF000874200D2D3E0A818019078680721884382
:100D00000199884201D000F037FD06983818049008
:100D1000874200D3C3E0B8690090FE68BE420CD0A1
:100D2000B8682169884225D3C168B94222D1B16827
:100D3000B9421FD1C660B0601EE0380014300668AA
:100D4000002E07D1380010300668002E14D001E0C4
:100D500008000668310014310A68002AF8D1310011
:100D600010310A68002AF3D12169884202D3002198
:100D7000016001E000F000FD009800283DD0F86916
:100D80008000201898214900401801688F4209D13D
:100D90000660002E14D160680121FA6991408843F1
:100DA00060602AE000982169884207D30069B84250
:100DB000009801D1066103E0466101E000F0DCFC2F
:100DC000002E1AD02069864215D30098B061386988
:100DD000002807D02169884202D33061866101E092
:100DE00000F0CAFC7869002807D02169884202D344
:100DF0007061866101E000F0BFFC0320102D09D274
:100E000001990843786001983818416801220A4323
:100E1000426041E006990843786001202843049924
:100E2000486004984551A0680090C608202E01D360
:100E300000F0A2FC009800282BD060690390019676
:100E4000F00020182830029006460098102801D2A1
:100E500000F092FC206801990200CA40D10705D435
:100E60000121019A91400143216008E002988068C5
:100E70002169884201D3060001E000F07DFC03985F
:100E8000029988600398F06003988660029803993D
:100E9000C860A560049860613800083002E000F086
:100EA0006BFC002007B0F0BDF0B587B0040000F087
:100EB000B1FCBA4DF52C00D325E10B2C01D2102446
:100EC00002E00B3407208443E00800902868009972
:100ED000C840032738424DD001260122824388189A
:100EE0000090C00028182830029084680098C00044
:100EF00003906068072188430399884201D000F07D
:100F00003BFCA06801900298844201D100F034FCBF
:100F10000198844201D100F02FFC606807218843CA
:100F20000399884201D000F027FC02980199884279
:100F300006D12968009A01209040814329600FE082
:100F400008462969884209D3C068A04206D10198A1
:100F50000299886002980199C86001E000F00CFCD9
:100F60000398074367600398201841680E43466062
:100F7000260007E1A968A14200D3D7E0002800D1EC
:100F8000B7E00126009901228A405100009A904062
:100F90004A420A43024051421140491E080B1022A6
:100FA0001040C1404A0908231A400092D1408A08E3
:100FB00004231A400192D1404A0802231A400292A7
:100FC000D1404A083240009BC018019BC018029BC8
:100FD000C0188018D14040180390C000281828304D
:100FE0000090806804900398C000029004984068C4
:100FF000072188430299884201D000F0BDFB049884
:101000008068019004980099884201D100F0B4FBF7
:1010100004980199884201D100F0AEFB0498406821
:10102000072188430299884201D000F0A5FB00986F
:101030000199884206D12968039A01209040814392
:10104000296010E00846296988420AD3C0680499DB
:10105000884206D101980099886000980199C8607B
:1010600001E000F089FB0298001B039027430498DD
:10107000476004980019059003983043059948602B
:10108000039805990850A8680090C408202C01D343
:1010900000F072FB0098002825D068690290019446
:1010A000E0002F1828373C000098102801D200F0EB
:1010B00063FB286801990200CA40324003D18E4088
:1010C00006432E6007E0B8682969884201D304000E
:1010D00001E000F051FB0298B8600298E0600298CD
:1010E00084600298C7600398A86005986861049EB0
:1010F00048E06868002836D021002800FFF7BCFDD2
:10110000060013D045E03F20C043844202D30024B0
:10111000E4430BE00B34072084436868002805D0C3
:1011200021002800FFF7C0FB060032D1A968A142C8
:1011300019D30A1B686901260327102A08D301194D
:101140006961AA6016434E608A502743476008E0F1
:101150000022AA606A610F43476041184A6816433B
:101160004E6006000EE0E86884420DD2001BE86085
:10117000A9690A19AA61012303435360032020438C
:1011800048600E00083604E021002800FFF792F9BD
:10119000060000F04EFB300007B0F0BD60410020BB
:1011A000002800D17047F0B585B00838050000F080
:1011B00031FB474C2069854200D2D2E26B680321A3
:1011C00003221A40012A00D1CBE2DE08F600AA1958
:1011D000029201273B4241D12A680B4000D1C2E272
:1011E000B6185342ED18854200D2BAE263699D42B7
:1011F00000D102E1D108202900D380E0A868019045
:10120000E868009003910098854201D100F0B4FA9B
:101210000198854201D100F0AFFA68680721884340
:101220000399C900884201D000F0A6FA0398C000D3
:101230002018019902002832914205D0226991427A
:101240005AD3C968A94257D10099019A914243D112
:101250002168039A012090408143216002988542D1
:1012600000D37EE24068384200D17AE2810700D59F
:10127000C5E10299A269914200D0CEE0E0688119EF
:10128000E160A5610F436F606069854202D1002073
:101290006061A060E069884200D364E20D480068A4
:1012A000002801D1FEF71AFFA169002900D15AE2F6
:1012B000E068292802D32000FEF702FFE069E16818
:1012C000884200D34FE20020C043E0614BE200BF00
:1012D00060410020D84500202830814206D00846D1
:1012E0002169884208D38068A84205D10098D0605F
:1012F000019800998860B1E700F03EFAAEE7A9696D
:101300000091EA68AA420DD0A9680192814228D3CF
:10131000C868A84225D19068A84222D1CA60019825
:10132000816020E0290014310A680192002A09D165
:10133000290010310A680192002A14D002E011003D
:101340000A680192019A14321368002BF7D1019AAE
:1013500010321368002BF2D1814202D300200860C2
:1013600001E000F009FA0098002800D176E7E8696A
:101370008000201898214900401801688D420AD148
:1013800001990160002915D16168EA690120904046
:101390008143616062E700982169884208D300694F
:1013A000A8420198009901D1086103E0486101E079
:1013B00000F0E2F90198002800D14FE72069019977
:1013C000814299D30099019A91612969002908D035
:1013D000814204D3019801610198886101E000F025
:1013E000CBF96869002800D138E72169884283D3A6
:1013F000019948610199816130E702984068014094
:10140000032900D02AE7A66002984068B8430299F1
:10141000486037436F60AE51A5E16269914207D1E0
:10142000A0688019A060656107436F6028509AE149
:10143000072188433618C00820284BD202998968B2
:1014400000910299C968039101900298039988421A
:1014500001D100F091F902980099884201D100F081
:101460008BF902984068072188430199C900884296
:1014700001D000F081F90198C00020180099020005
:101480002832914208D02269914200D2ACE0C9686A
:10149000029A914200D0A7E00399009A914206D1A6
:1014A0002168019A01209040814321609EE028300C
:1014B000814209D008462169884200D294E08068C0
:1014C0000299884200D08FE00398D0600098039979
:1014D00088608BE00298806901900298C068029948
:1014E000884212D0029989680090206981422CD3E9
:1014F000C868029A904228D100988068904224D10E
:101500000098C8600098816021E00298143001685A
:101510000091002909D1029810300168009100293A
:1015200015D002E0080001680091009914310A68A2
:10153000002AF7D1009910310A68002AF2D12169F6
:10154000884202D30021016001E000F015F9019802
:1015500000284BD00298C0698000201898214900CB
:1015600040180299026891420BD10099016000294C
:1015700017D161680298C26901209040814361607F
:1015800034E001982169884209D3006902998842B0
:101590000098019901D1086103E0486101E000F081
:1015A000EBF80098002821D02069009981421BD3D4
:1015B0000199009A916102990969002908D0814234
:1015C00004D3009801610098886101E000F0D4F82C
:1015D00002984069002809D02169884204D3009903
:1015E00048610099816101E000F0C6F801203043B4
:1015F0006860AE516069854208D1A660B3E0B84327
:1016000002994860012030436860AE51F0082028FC
:1016100025D20090C0002018283001900290102E92
:1016200001D200F0A9F8206800990200CA403A40AF
:1016300003D18F400743276008E001988068216943
:10164000884201D3029001E000F096F8019885608D
:101650000298C5600298A8600198E86083E0300AAB
:1016600001D1002227E03904884201D31F2222E061
:10167000FF21C9434118090C0822114000918840FC
:101680003B494118090C0422114001918840394915
:101690004118090C022211400E22009BD21A019B14
:1016A000D21A521A8840C00B10184100C01D3200D7
:1016B000C2403A408A1890002018982149004018EA
:1016C0000090EA6100206861286161680B00D340E6
:1016D0003B4007D197400F43676000980560009832
:1016E000A8611EE0009909681F2A01D1320006E0B6
:1016F000192352089B1A32009A4000E039004B68C7
:101700000727BB43B3420FD0D30F9B00CB18103336
:1017100052001F68002FF1D12069834210D31D6051
:10172000A961ED60AD600DE08A682369994207D335
:101730009A4205D3D5608D60AA60E960A86101E096
:1017400000F01AF8206A401E20620CD1E42040000C
:10175000205800E080680028FCD10020C0432062AF
:1017600001E000F009F800F064F805B0F0BD0000F9
:1017700000F0FFFF00C0FFFF80B5012000F068F817
:1017800001BD002801D00968016070470749086859
:10179000002801D0002070470548072290430860C8
:1017A00004499143091A0160704700BF6446002054
:1017B0007F230020783B0020124207D08B0706D001
:1017C0000B78491C0370401C521EF7D870478307E2
:1017D00006D00B78491C0370401C521EF9D170478B
:1017E00070B4103A03D378C9103A78C0FBD25307CB
:1017F00001D318C918C001D508C908C0D20704D33D
:101800000B880380891C801C002A01D50B7803708B
:1018100070BC704780B5012000F0B3F801BD80B501
:10182000022000F0AEF801BD80B5042000F0A9F858
:1018300001BD80B5012000F0B6F801BD80B50220E1
:1018400000F0B1F801BD80B5042000F0ACF801BD96
:101850002021090326311820ABBEF9E710B5574CFB
:101860002068002832D0201D00F0AAF8200008309F
:1018700000F0A6F820000C3000F0A2F82000103094
:1018800000F09EF82000143000F09AF82000183084
:1018900000F096F820001C3000F092F82000203074
:1018A00000F08EF82000243000F08BF82000283063
:1018B00000F087F820002C3000F083F82000303052
:1018C00000F07FF82000343000F07BF810BD10B538
:1018D0003A4C201D00F076F82000083000F072F835
:1018E00020000C3000F06EF82000103000F06AF894
:1018F0002000143000F066F82000183000F062F884
:1019000020001C3000F05EF82000203000F05AF873
:101910002000243000F070FA2000283000F06CFA2B
:1019200020002C3000F068FA2000303000F064FA1B
:101930002000343000F060FA10BD38B504001F4DAF
:101940002868002801D1FFF7C2FF01202860002C81
:1019500007D0A078082804DA80002818001D00F0BD
:101960004CFA200032BD002800D1704780B5807845
:10197000082805DA114980000818001D00F03EFA19
:1019800001BD38B504000D4D2868002801D1FFF7CE
:101990009EFF01202860052C04D2A00028182430C6
:1019A00000F02DFA31BD052800D3704780B50349FA
:1019B00080000818243000F023FA01BD40450020C3
:1019C000704770477047704738B50500B24C206CBF
:1019D000002802D1200044302064206C21004431D2
:1019E000884204D05D22AD49AD4800F00BFA0020DA
:1019F000002221000B68AB4200D10860521C4B68EA
:101A0000AB4200D14860521C8B68AB4200D1886069
:101A1000521CCB68AB4200D1C860521C1031102A56
:101A2000E8D3206C002802D1200044302064206CD0
:101A300021004431884204D05D229849984800F042
:101A4000E1F931BDF1B586B00F0000BF7DA100F016
:101A500003FA002810D1B048006800280AD1AF4C22
:101A60000B220821200000F009FA962189012000AC
:101A700000F04AFA002094E074A1069800F0ECF916
:101A8000002810D1A448006800280AD1A34C0B22DA
:101A90000821200000F0F2F996218901200000F0D1
:101AA00033FA01207DE000BF6AA1069800F0D4F966
:101AB000002810D19848006800280AD1974C0B22C2
:101AC0000821200000F0DAF996218901200000F0B9
:101AD0001BFA022065E0704D286C002802D1280016
:101AE00044302864286C29004431884204D05D22A7
:101AF0006A496B4800F086F9002600242800016836
:101B000000290FD0641C416800290BD0641C816837
:101B1000002907D0641CC168002903D0641C103060
:101B2000102CECD3102C14D300F012FA1821016001
:101B3000286C002802D1280044302864286C290031
:101B4000443188423DD05D225449554800F05AF94D
:101B500037E0A000281801900020C04301990860D8
:101B6000286C002802D1280044302864286C290001
:101B70004431884204D05D224849494800F042F986
:101B80000296069800783A280DD104220698411C46
:101B90006846FFF711FE00980290029801990860CC
:101BA000E01C07B0F0BD069903A800F0D9F900F0D9
:101BB00024FA002808D100F0CBF913210160019824
:101BC00006600020C043ECE703A800F0FBF9002802
:101BD00003A802D000F001FADEE700F0E3F900907C
:101BE0000028E8D03D00B807800F07D0022801D0B8
:101BF00002D304E0022502E0012500E00025F805FB
:101C000003D528008025AD0005430820074202D0F7
:101C1000290008250D43B80503D528008025ED00CF
:101C2000054303A800F0BCF92B00020002A90098AC
:101C30000568AD68A8470500AFD000F089F9694292
:101C4000BCE700002F737464696E00002F73746426
:101C50006F7574002F7374646572720010B5032879
:101C600018DB0D49800009180C39086800220A6049
:101C7000002803D100F06CF9092107E001684969E7
:101C80008847040006D500F063F961420160002036
:101C9000C04310BD002010BD804400200C6405101E
:101CA0006C6F0510F8B50C00170003281ADA1A48F3
:101CB000006800280AD1194E0B220821300000F0DC
:101CC000DDF896218901300000F01EF9002F21D0A7
:101CD0003D00124E2178300000F00BF9641C6D1E9F
:101CE000F8D117E02D49800008180C38006800284A
:101CF00006D100F02DF9092101600020C043F2BD9A
:101D000021000368DB689847070003D500F020F93D
:101D1000794201603800F2BD4846002000460020AC
:101D200010B5032803DA00F013F91D2112E01B4B54
:101D3000800018180C380068002803D100F008F95A
:101D4000092107E003681B699847040005D500F0E6
:101D5000FFF8614201600020C04310BD1CB50100C6
:101D6000684600F0FDF800F01DF9040003D100F012
:101D7000EFF813210CE0684600F012F90100200092
:101D8000226812699047040006D500F0E1F861422C
:101D900001600020C04316BD002016BD8044002015
:101DA000002801D000F02EF9FEE780B500230222C2
:101DB000694600F0A1F901BD11B583B00C0001A87E
:101DC0003A210170042203A9401CFFF7F5FC210011
:101DD00001A800F0E9F904000BD003980168C96973
:101DE0008847002805D0002302226946200000F021
:101DF00083F9200004B010BD7047704770477047EA
:101E00007047FEE770B504000D00160000F0E2F91F
:101E100033002A00210000BF02A000F007FA00F002
:101E2000F1F870BD6D6265642061737365727461F1
:101E300074696F6E206661696C65643A2025732C45
:101E40002066696C653A2025732C206C696E6520CC
:101E50002564200A0000000001E0401C491C0A78AB
:101E60000378934203D1002BF7D10020704702D2B0
:101E70000020C043704701207047FEE7F4B586B0EC
:101E800007000C000121092000F002FA200000F0F8
:101E90000BFA009001246D462C710026AE716E7114
:101EA000684600F007FA69461820085600F0FCF969
:101EB00000902C71684600F0FDF9E120400202908C
:101EC000032002A908714871CE804E7208728C728C
:101ED00002A800F063FA1B48386002A8B86000202E
:101EE00000F010FB012000F04DFA1748046007B025
:101EF000F0BD10B50C00202000F0F3FA0128FAD054
:101F0000A0B200F0E9FA10BD8068016070470F4B85
:101F100019605A604260704738B50D001400684679
:101F20000421017003214170847000F00BFB002D2F
:101F300002D1E1B2102002E0E1B28020400100F0C5
:101F4000C1FA31BD00003040484600203046002034
:101F500080B5024800F040FB02BD0000B403002041
:101F600010B50400080000212160616002782F2A6A
:101F700014D14278002A11D0421C01E0491C521CA5
:101F80002260226813782F2B02D1521C226001E0BC
:101F9000002BF3D1401C00F07EFB6060200010BDE0
:101FA0000068704710B504006068002808D000F091
:101FB0009FFB012804D16068002802D0001F10BDDB
:101FC000002010BD4068002800D1704780B500F0A7
:101FD0008FFB401E8041C00F02BD10B50400606839
:101FE000002808D000F084FB002804D16068002895
:101FF00002D0001F10BD002010BD4068002800D096
:10200000012070471CB500F0E5F80621684600F095
:10201000A2FBC82464000121684600F0C6FB96209C
:1020200000F0DCFB0021684600F0BFFB962000F0CA
:10203000D5FB0121684600F0B8FB962000F0CEFBEE
:102040000021684600F0B1FB962000F0C7FB01219B
:10205000684600F0AAFB962000F0C0FB002168460D
:1020600000F0A3FB962000F0B9FB0121684600F0C8
:102070009CFB962000F0B2FB0021684600F095FB27
:10208000962000F0ABFB0121684600F08EFB20009B
:1020900000F0A4FB0021684600F087FB200000F060
:1020A0009DFB0121684600F080FB200000F096FBBC
:1020B0000021684600F079FB200000F08FFB012131
:1020C000684600F072FB200000F088FB00216846A3
:1020D00000F06BFB200000F081FB0121684600F05E
:1020E00064FB200000F07AFB0021684600F05DFBF5
:1020F000200000F073FB8EE7F8B51C000D00002AED
:102100000ED10026FFF719FC07003888C02189018D
:10211000084220D18020000684420BD3C44313E040
:10212000012A02D18026F600ECE7022A16D1802689
:102130003601E7E7002C07D1002D01D1840D05E021
:102140003D003D350124060D002D0DD12000FEF788
:10215000ABFE050005D13800FFF705FC0020C043A9
:10216000F2BD3000402606433878400606D5786830
:10217000FFF716F838880A4901403980388809493C
:1021800001400E433E807D602819B860FD603D61CE
:10219000BD627D61FD623800FFF7E5FB0020F2BD06
:1021A000BFFF0000FFF3000038B504000D00FFF78B
:1021B00036FB00F027FB002100910023DB430200E7
:1021C0002900200000F092FB0400FFF737FB2000FD
:1021D00032BDFEE738B5EFF31080C507ED0F72B6DC
:1021E0000E4C6068002800D1257060680021C9434A
:1021F000884204D143220A490A48FFF703FE606877
:10220000002806D0002D04D1472205490648FFF7D3
:10221000F9FD6068401C606031BD00BF28460020A9
:10222000B05E0510885E0510FC5E05100EB400B5AA
:1022300001A900F003F8009804B0004770B5A0B001
:1022400004000D00FFF7C6FF2B0022008021684626
:1022500000F0E2FB0400012C11DB0B4800680028B1
:1022600004D10B2208210948FFF708FE6D46074EEE
:1022700029783000FFF73DFE6D1C641EF8D100F098
:10228000E9FB20B070BD0000484600200046002059
:10229000044A0129116802D1084310607047814344
:1022A0001160704720009040010001200907090FCC
:1022B00088407047B0B4020010792F4B010004D160
:1022C000186811688843186007E0062805D10020C7
:1022D0001071186811680143196000250024106806
:1022E000E040C0071BD5082C08DA996A0F20A840E7
:1022F00081431079A8400843986210E02000083814
:1023000008280CD229002039D86A0F278F40B843FB
:102310001779BC460F006146B9400143D962641C7D
:102320002D1D1A2CDBDB106851790129996802D127
:102330000843986001E08143996010689179012910
:10234000596802D10843586001E081435960B0BC2C
:102350007047002101600171817141717047074927
:1023600008607047064908607047044A012901D196
:102370001060704750607047040000403C0000400F
:102380004000004064490028086803D0012202434D
:102390000A607047012290430860704770B50400DE
:1023A0005E482168090100F08EFBC2095C490A8180
:1023B0001204520A801A401C400882B2402A02DBF2
:1023C0003F388006800E087360209F220B7C1340EC
:1023D00025796D0105401D430D740B781A40637912
:1023E0005B011840104308700820F7220B7C134053
:1023F000A579ED0008262E401E430E740B781A4076
:10240000A379DB00184010430870E279100007D16F
:10241000FD200A7C02400A740A78104008701DE012
:102420000220022A0A7C03460BD113430B74FB22C1
:102430000B7C13400B740B7818430870087802402B
:102440000BE013430B7404220B7C04251D430D7415
:102450000B7818430870087802430A7001204A6913
:10246000304B1340227A024052021A434A614A69B1
:102470002D4B1340227A5208024012021A434A613D
:102480004A692A4B1340627A024092031A434A6116
:102490004A69274B1340627A52081040C003184320
:1024A00048611020EF220B7C1340A57A2D010540D6
:1024B0001D430D740B781A40A37A1B01184010437A
:1024C000087070BD1B4A0029118802D00843108093
:1024D0007047814311807047C005C00D16490880C0
:1024E00070471649002806D509680840401E8041FB
:1024F000C043C00F7047898A0840411E8941C943C3
:10250000C80F70470E490A78C7231340C00038220D
:1025100002401A430A707047300030400000127ABF
:102520001C003040FFFDFFFFFFFEFFFFFFBFFFFF6E
:10253000FF7FFFFF38003040000030400400304093
:102540003400304030B401788278002A23D04478B7
:1025500049B2CA0018231340FF259D40EA43A4074F
:10256000240E9C40002901D4164B03E0164B0907AA
:10257000090F08398908890059180B681A40144353
:102580000C6000780121C206D20E91400F4A40092A
:102590008000115007E00120CA06D20E90400C4A7C
:1025A00049098900505030BC70470A490028086822
:1025B00003D0042202430A6070470422904308605B
:1025C0007047000000E400E01CED00E000E100E0E6
:1025D00080E100E010ED00E07047FEE780B500F01C
:1025E00005F802BD80B500F034F802BDF8B505006D
:1025F0000F003B48286000266E60AF602A73394C9C
:102600006068002802D12000083060606068210006
:102610000831884204D05D2233493448FFF7F2FB89
:10262000002F03D020686860256000E06E6060685D
:10263000002802D120000830606060682100083165
:10264000884204D05D2228492848FFF7DBFB280098
:10265000F2BD38B5040022482060224D281D00F04C
:1026600089FAA06800280BD02868A04203D16068CE
:10267000286005E008004168A142FBD16168416023
:10268000281D00F077FA207B002802D1201FFFF7D9
:102690009BF9200032BDF1B50E00124D281D00F04F
:1026A00069FA2C6800E06468002C13D0A768002F3A
:1026B000F9D032000099380000F072FA0028F2D107
:1026C000380000F083FAB042EDD1281D00F052FA34
:1026D0002000F2BD281D00F04DFA0020F2BD0000E0
:1026E000D06F0510104600200C6405106C6F0510AB
:1026F000007B704770B51CE0F8B505000C001700B2
:102700001E0000F05AF80020C04384420BD0310074
:10271000280000F04AF80121280000F032F83900C2
:10272000280000F01FF8F1BD80B50022FFF7E2FF9E
:1027300001BD04000D00160000F03FF80020C0436A
:10274000854207D00021200000F01BF83100200056
:1027500000F008F870BD80B500230022FFF7CCFF21
:1027600001BDFEE738B50400207905004A1E9241FC
:10277000D243D20FA271062802D10120A07160714C
:102780000EE038B50400002904D0062506200121FA
:10279000012202E0002500200022A1716271207157
:1027A0002000FFF787FD257131BD80B50068002945
:1027B00000D00121FFF7D9FD01BD38B504000D009F
:1027C00001210120FFF764FD2800FFF76DFD206067
:1027D000062525710120A0716071E1E770B5040044
:1027E000FA208000444300E0040000F0F7F90500FF
:1027F00000F076FB0600280000F072FB801BA04270
:10280000F9D370BD38B500200024364D29000A6880
:10281000002A0AD14020FEF747FB002818D0A1006B
:10282000685080210180847032BD1288002A04D152
:10283000A00028582C49018032BD641C4A68002A37
:10284000E8D01288002AF3D0641C0831082CDED3AB
:1028500032BD10B500210278120626D50023214A88
:102860001468844202D19B00D1501BE001235468BC
:102870008442F8D0022394688442F4D00323D468BD
:102880008442F0D0042314698442ECD005235469B7
:102890008442E8D0062394698442E4D00723D469B3
:1028A0008442E0D0FEF77CFC10BD0180C943C170BA
:1028B00001003D31416001003D31C16001003D3109
:1028C000016101003D31816201003D314161010042
:1028D0003D31C16201003D31816101002431C1619E
:1028E00010BD0000940300207FFF0000F1B582B00E
:1028F0000D0014001E00002C67D0277880200740B0
:10290000A0780090200000BF33A14022FEF768FFAE
:102910000098A07020003D30606020003D30E060F5
:1029200020003D30206120003D30A06220003D307D
:10293000606120003D30E06220003D30A061200059
:102940002430E0612878722801D1012108E077283D
:1029500001D11A2104E0612801D1162100E00021F3
:10296000394321800320014206D12BE02188202217
:1029700011420ED10A4322806D1C29786229F5D0BC
:102980002B2906D1218803220A40032A01D00322E1
:10299000F0E70298002813D00898552801D10122A9
:1029A00002E00022002803D020884021014300E0FB
:1029B0002188029800F0A0FAE070002808D501E014
:1029C000002E04D5200000F0C7FA002001E0E670D8
:1029D000200003B0F0BD0000000000FF0000000078
:1029E00000000000000000000000000000000000E7
:1029F00000000000000000000000000000000000D7
:102A000000000000000000000000000000000000C6
:102A1000000000000000000018B583B000240294FC
:102A2000002902D10094019402E00090491E019116
:102A300003AB694606487844163000F0CDFA009999
:102A4000002900D00C70002800D4029804B010BDFA
:102A5000DD42010010B50C4C6068002812D0EFF385
:102A60001080C00704D4582208490948FFF7CAF962
:102A70006068401E60606068002803D120780028EC
:102A800000D162B610BD00BF28460020B05E051020
:102A9000FC5E0510F446002804D4494200F013F807
:102AA000404260474042002905D45FD000F00BF857
:102AB000404249426047494200F005F849426047B8
:102AC00003460B43E6D40022030A8B420BD20309D0
:102AD0008B4219D243088B422ED2411A00D20146B2
:102AE000524110467047FF2209023FD012068B4226
:102AF00005D3121209028B4201D3121209020309F3
:102B00008B4219D300E0090AC3098B4201D3CB01E0
:102B1000C01A524183098B4201D38B01C01A524122
:102B200043098B4201D34B01C01A524103098B4226
:102B300001D30B01C01A5241C3088B4201D3CB0011
:102B4000C01A524183088B4201D38B00C01A5241F4
:102B500043088B4201D34B00C01A5241884200D334
:102B6000401A5241CFD201461046704708B501F0D5
:102B7000A3FA08BD10B504002068002801D1201D6B
:102B800020602068211D884204D05D22024903484C
:102B9000FFF738F9206810BD0C6405106C6F051044
:102BA00010B402E0401C491C521E002A0BD00B78C6
:102BB00004789C4205D002D20020C04304E00120EA
:102BC00002E0002CEED1002010BC7047010000E0B4
:102BD000491C0A78002AFBD1081A704700A07047E8
:102BE000106D0510C8440020F1B584B0406838214C
:102BF000405C002865D1049800680068804704980C
:102C0000006880698047040020680090002807D190
:102C1000292200BF2CA196A0FFF7F4F89548009058
:102C200060680700001F1D2805D32F2226A190A051
:102C3000FFF7E8F820270720391F88400290049802
:102C40004068002101604160049800684068804746
:102C50000499496801910E460836B06100240025A8
:102C60003000203030C000983060012000213A0050
:102C700001F024FA401E70600298B06002980021B2
:102C80007C4A002301F02CFA02000B00009800217E
:102C9000801859410022401E9141009A002301F002
:102CA00038FA3200103203C23000283030C0012020
:102CB000019938228854049800F02AF8049800F00A
:102CC000DBF805B0F0BD0000433A5C5573657273E4
:102CD0005C4769616E6C7563615C6D626564434CF1
:102CE000496465765C6769616E2D626561636F6ECC
:102CF0005C6D6265642D6F735C68616C5C6D6265B0
:102D0000645F7469636B65725F6170692E63000054
:102D1000F0B583B005006C68286840688047020001
:102D20006868006A82426BD0206A111AE068084025
:102D300000212262A26802924E4B9A4202D1060002
:102D4000002755E01A46002301F0CAF9029A8023B1
:102D50001B029A4219D1C60B4A041643CF0B22001C
:102D600028320CCA80185941FB03750C2B43F2031F
:102D7000801A99412200283203C2802212020023C5
:102D8000994228D8904233D325E06A4603C2684668
:102D900003C8029A002301F0BCF906000F002000CE
:102DA00028300CC8684603C880185941009001912A
:102DB00030003900029A002301F092F9009A019B39
:102DC000121A8B41200028300CC0029800218B423F
:102DD00001D882420CD30020761C474120002830C5
:102DE00003C8029A0023801A99412200283203C2A4
:102DF0002000303003C836184F4120003030C0C0AA
:102E000003B0F0BD39B581B04468200008302830E7
:102E100003C8121A8B4110001900256922001832CC
:102E20000CCA8B4219D301D8824216D3A268114B27
:102E30009A420FD080231B029A4204D1C903420C4C
:102E40001143C00302E0002301F04AF9094A0023BC
:102E500001F05FF9854200D9050020000830806943
:102E60004119200008304068084003B030BD000020
:102E70003000000040420F0070B504006568FFF7A5
:102E800047FF60684168002921D00CC9303003C871
:102E9000994202D317D8904215D22000FFF7B2FF13
:102EA0000600216809698847206840688047296AC8
:102EB000B14204D2B04206D2884210D203E0884226
:102EC0000DD2B0420BD320684069804770BD286A9C
:102ED00029694118E868084021680969884770BD78
:102EE00010B5FFE70400FFF77FFE2000FFF710FF9B
:102EF0006068303003C810BD10B500BF12A28B0748
:102F00001B0FD25808234C0700D51A430B4003D09F
:102F10001300802292001A43CB0603D513008022AF
:102F200052001A434B0603D513008022D2001A43E5
:102F3000890602D58021090201E08021C9011143DF
:102F4000FEF780FD40B210BD000000000000000050
:102F5000010000000200000070B504002078800726
:102F600003D003202056002809D5FEF758FC200086
:102F7000FFF76FFCFEF762FC0026F64329E0200015
:102F800001F036F90600FEF74AFC2078400602D52B
:102F90006068FEF705F900256560032020560228C9
:102FA00005D9FEF75BFE002801D00026F643A06B92
:102FB000002809D0FEF7D2FE002801D00026F643F3
:102FC000A06BFEF7EDF8A5632000FFF742FCFEF7CB
:102FD00035FC300070BDFEE7F1B5A4B00E00140062
:102FE0001D004A487844FF30253003C822AA03C296
:102FF000049600200D9001E00098241800206946F6
:10300000C88022AB0022D243210001A8801C01F01D
:103010000FF90090012805DA2078411E8941C94343
:10302000C90F00916846C0882528009F00D17F1EE7
:10303000012F0EDB260031780498249A90470490E3
:10304000002800D101E10D98401C0D90761C7F1ED8
:10305000F1D16846C088252807D100200790089044
:1030600009900A900B900C9008E06846C0880028F0
:10307000C2D10D98EBE0010001200843641C2178C7
:103080002029F8D023290ED02B2904D02D2907D0B0
:1030900030290BD00DE001000220084380B2EDE79B
:1030A00001000420F9E701000820F6E701001020E4
:1030B000F3E72A290FD1296829600A68091D2960C8
:1030C0000F92002A05D551420F91010004200843B8
:1030D00080B2641C12E000210F910AE00F9A7C4B31
:1030E0009A4205D093009A185200511830390F9126
:1030F000641C21780A00303A0A2AEFD321782E295D
:1031000006D00021C9430E9121E000BFD43D01004B
:10311000641C21782A2907D1296829600A68091DB9
:1031200029600E92641C12E000210E910AE00E9AB2
:10313000674B9A4205D093009A18520051183039C3
:103140000E91641C21780A00303A0A2AEFD302A9B2
:10315000088726783100044878440C3001F076F86E
:10316000002803D0641C02E0803D0100002602A874
:103170003A214654405C682804D12178682901D15D
:10318000622005E06C2807D120786C2804D17120DA
:1031900002A93A228854641C12A806902678641C5E
:1031A0003000253824D02038022800D8D9E0133840
:1031B00000D1FCE00B3800D168E1401E00D140E1B5
:1031C000401E022800D8CCE0001F00D139E1401F8A
:1031D00000D197E0401E00D1E9E0401E39D0C01E6A
:1031E0000BD0801E00D1E2E0C01E00D1DFE070E114
:1031F000252012A90870012075E102A83A21405C3F
:103200006C282868286016D00668001D286005967E
:103210000E9F002F03D53000FFF7D8FC09E03A00DD
:103220000021300001F01CF8002801D0801B00E0D4
:103230003800089058E10268001D286002A924980F
:1032400000F032FA002800D44EE10020C04325B03F
:10325000F0BD286828600268001D28600020C04377
:103260000021104002AA03C212A80590069B3C262A
:1032700002A803C8002904D1002802D10E9A002A0E
:1032800014D0761E00960207120F3032D2B23A2ABC
:1032900000DB27329A5500090A071043090901D1BA
:1032A000002803D0059A9F19BA42EAD33C20801B1C
:1032B0000890991905910E9988420DDA081A0A901A
:1032C00002A8008F0349014002A801870CE100BF5A
:1032D000FFFFFF7FEFFF0000002900D404E102A9F7
:1032E0003822895C14220A40102A00D0FCE00F9991
:1032F000079A891A0A9A891A0E1A012E00DAF3E03F
:103300000A96F1E002A83A21405C622819D06828A8
:1033100006D06A280CD06C281BD0712808D018E081
:10332000286828600168001D28600D980880DBE08F
:10333000286828600268001D28600D98C11703C224
:10334000D2E0286828600168001D28600D98087088
:10335000CAE0286828600168001D28600D98086090
:10336000C2E02A68D21D072082432A6003CA2A606D
:1033700002AA03C2002902D507982D210AE002A85B
:10338000008F810702D507982B2103E0C00705D5E0
:103390000798202112AA1154401C079012A80799DF
:1033A00040180590310002A800F0C6FB9CE002A87E
:1033B0003A21405C6C280BD0712801D06A2807D1D3
:1033C0002A68D21D072082432A6003CA2A6005E0CA
:1033D000296829600868091D2960002102AA03C222
:1033E00002A83A21405C682803D102A803C880B231
:1033F0000BE0622803D102A803C8C0B205E074281C
:1034000001D07A2804D102A803C8002102AA03C26D
:1034100002A83821405C00072FD502A803C8002964
:1034200001D1002829D020203043782825D10798C1
:10343000302112AA1154401C411C079112A90E54AC
:103440001BE0290002A83A22805C00F0F8F802AAEA
:1034500003C202A8002902DA07982D2109E0008F93
:10346000810702D507982B2103E0C00705D50798EF
:10347000202112AA1154401C079012A80799401845
:103480000590310002A800F0A1FA2DE002A83A212F
:10349000405C6C2809D001200790286828600168EA
:1034A000001D286012A801701EE0286828600168CD
:1034B000001D286068460180002069464880C0439E
:1034C0000E906A4602A9249800F0EEF800280BD569
:1034D000BBE6252012A9087001200790300003D018
:1034E00012A84670022007900F980799401A0A996F
:1034F000401A0899401A0B99401A0999401A0C99D8
:10350000401A009002A83821405C400711D42020C6
:1035100069460871009801280BDB009E012301AA6F
:1035200002A9249800F0AFFD002800D08DE6761E99
:10353000F4D1079F12AE002F0DD031780498249A51
:1035400090470490002800D17FE60D98401C0D9014
:10355000761C7F1EF1D13020694608710A9E012E2B
:103560000ADB012301AA02A9249800F08CFD00289F
:1035700000D06AE6761EF4D1059E089F002F0DD07C
:1035800031780498249A90470490002800D15CE692
:103590000D98401C0D90761C7F1EF1D1302069469D
:1035A00008710B9E012E0ADB012301AA02A92498AF
:1035B00000F069FD002800D047E6761EF4D105989A
:1035C00008994618099F002F0DD031780498249A45
:1035D00090470490002800D137E60D98401C0D90CC
:1035E000761C7F1EF1D13020694608710C9E012E99
:1035F0000ADB012301AA02A9249800F044FD002857
:1036000000D022E6761EF4D102A83821405C4007A3
:1036100000D4F3E42020694608710098012800DAFC
:10362000ECE4009E012301AA02A9249800F02BFDDE
:10363000002800D009E6761E00D1DFE4F2E70A0098
:10364000622822D0682819D06A2808D06C2823D094
:10365000712804D074281FD07A2808D01CE0136881
:10366000DB1D07208343136003CB13607047116891
:1036700011600868091D1160002170471168116010
:103680000868091D116000B20BE01168116008683C
:10369000091D116040B204E0116811600868091D3D
:1036A0001160C11770470000F4B59AB007000C0014
:1036B000206B002800D50E48039000F0DDFD616B03
:1036C0000818069009487844223003C807AA03C2A4
:1036D0003820205C400702D4069841280AD209A865
:1036E0000290402006900020059012E0043801006E
:1036F000FFFFFF7FFDF7D8FB02900028F3D10020E9
:10370000C04361E11A98801C1A9003980199401AED
:1037100003900398012800DAD0E007AA1A980188DC
:1037200000A8401C00F0ADFD0190002800D5E2E0AB
:103730001A980088002804D10198401E019000D5F5
:10374000D9E003980199884200DAB7E060690699E8
:10375000019A8218914200D39FE0002161634142A7
:10376000206A081AA169401A616A401AE169401A80
:10377000A16A401A04903820205C400711D4202010
:1037800069460870049801280BDB049D01236A46F2
:103790002100380000F077FC002800D0ABE06D1E5F
:1037A000F4D16669029D002E0CD02978A068B84734
:1037B000A060002800D19EE0E06A401CE0626D1C21
:1037C000761EF2D1302069460870256A012D0ADB89
:1037D00001236A462100380000F055FC002800D083
:1037E00089E06D1EF4D1E568A669002E0BD029781A
:1037F000A068B847A06000287DD0E06A401CE06265
:103800006D1C761EF3D1302069460870656A012D63
:1038100009DB01236A462100380000F034FC00284F
:1038200069D16D1EF5D1E068A1694518E669002EE1
:103830000BD02978A068B847A06000285BD0E06A68
:10384000401CE0626D1C761EF3D130206946087082
:10385000A56A012D09DB01236A462100380000F02A
:1038600012FC002847D16D1EF5D13820205C40079E
:1038700010D5202069460870049801280ADB049DB1
:1038800001236A462100380000F0FDFB002832D1F8
:103890006D1EF5D1002005906061019A00A9491CB8
:1038A00002986369C018FDF787FF606901994018A5
:1038B00060611A980088002800D023E70598002846
:1038C0007BD1606B6169401A216A401AA169401A74
:1038D000616A401AE169401AA16A461A3820205CE0
:1038E000400711D4012E0FDB35002021A068B84716
:1038F000A060002803D10020C04305905DE0E06A8D
:10390000401CE0626D1EF0D16369029A210038000C
:1039100000F0B9FB0028EED1256A012D0ADB302129
:10392000A068B847A0600028E5D0E06A401CE062CB
:103930006D1EF4D1A369E2682100380000F0A3FBFA
:103940000028D8D1656A012D0ADB3021A068B8476C
:10395000A0600028CFD0E06A401CE0626D1EF4D168
:10396000E369E068A16942182100380000F08BFB90
:103970000028C0D1A56A012D0ADB3021A068B84714
:10398000A0600028B7D0E06A401CE0626D1EF4D150
:103990003820205C40070DD5012E0BDB350020219F
:1039A000A068B847A0600028A5D0E06A401CE0628B
:1039B0006D1EF4D1002060616063029809A98842FD
:1039C00001D0FDF7EDFB05981BB0F0BDF3B583B05A
:1039D000006900906846027C6F2A01D1082406E045
:1039E00020211143782901D00A2400E010243C252D
:1039F000039803C806000F00642A01D0692A07D182
:103A0000002905DA00200021801BB94106000F00C3
:103A1000002F10D1002E0ED10398006B00280AD180
:103A2000082C3AD103983821405C000735D53B2556
:103A30003020009930E06D1E0195300039002200E1
:103A4000E31700F066FB3032D2B23A2A03DB684655
:103A5000007C51381218009842553000390022007D
:103A6000E31700F056FB06000F0001D1002E05D031
:103A70000398C068009949198842DCD3082C0CD1FE
:103A800003983821405C000707D50098405D302836
:103A900003D06D1E3020009948553C20401B0399EF
:103AA000886100994919039AD1600399096B88428A
:103AB00009DA081A039908620398008FB149014096
:103AC0000398018715E0002913D503993822895CF2
:103AD00014220A40102A0CD10399496B039A5269A7
:103AE000891A039A126A891A0D1A012D01DB0398AB
:103AF000056205B0F0BDF4B504000D000026A24F2C
:103B000014E0C00707D532003B002000290000F078
:103B1000C4FB04000D0000984010009030003900F4
:103B200032003B0000F0B9FB06000F0000980028AF
:103B3000E7D120002900F4BDF3B591B006AA03C86F
:103B400002AB03C31198006B002801D5062007E0E3
:103B500008D112A8007820210143672902D1012051
:103B600011990863119840684100490D874B9942AB
:103B700023D100030FD11198006800280BD1032036
:103B80001199886112A8007861381A2848D300BFBB
:103B900086A000900AE003201199886112A800789D
:103BA00061381A283AD300BF81A0009003220099FF
:103BB0001198C068FDF700FEE2E001292BDB744A92
:103BC000024074481043119A50607348081A00B2BA
:103BD000724C444302A803C80022002300F01FFCDB
:103BE00006D202A803C880221206514002AA03C2CC
:103BF00020006B49FEF764FF69468880019C24B26F
:103C00000720001B009001280CDB024602A803C815
:103C1000FFF771FF11E000200023A6E065A0C4E7D4
:103C200065A0B6E7424200205E49FFF764FF02004C
:103C30000B0002A803C800F00BFC02AA03C212A8E2
:103C40000078202101430491662901D10A3400E063
:103C500006241198006B00190090142801DB132032
:103C6000009030206946087606A8441C0098012878
:103C700039DB02A803C800F04DFC05900646083465
:103C8000042530000A21FEF71EFF0F0030000A2134
:103C9000FEF719FF06003037601E077030000A215A
:103CA000FEF711FF0F0030000A21FEF70CFF06009F
:103CB000A41E303727706D1EE3D1083400980838F1
:103CC00000900128D2DB059800F03CFC02000B00BC
:103CD00002A803C800F0A3FC0022334B00F0DDFA79
:103CE00002AA03C2C5E706A8401C201A06A94A1C5E
:103CF0006B4605E0401E019909B2491E9980521C8D
:103D000011783029F6D00499662903D1019909B2B6
:103D1000491C04E0652901D1012100E00021119B2B
:103D20001B6B5B181BB2984200DA03001BB2190030
:103D30001DD4814204DA505C352801DB392000E0D3
:103D40003020541800E05B1E641E491E2578854211
:103D5000F9D0392802D1505C401C5054002906D5B6
:103D6000521E5B1C019800B2401C69468880019875
:103D700000B200901BB212A80178119800F01EF852
:103D800013B0F0BDEFFF000000002440FF0700006B
:103D9000FFFF0F800000E03FFE030000977500006A
:103DA000A08601000000F03F84D79741494E4600AD
:103DB0004E414E006E616E00696E6600F3B587B0CD
:103DC00015001C0000F0BBFC0090406A00786946BA
:103DD00008710798076B012C01DA0124A9A508A82E
:103DE0000178202008430E9E662801D1761C17E03A
:103DF000672800D0B2E00321C9438E4200DA99E07F
:103E0000BE4200DB96E0761C07983821405C000734
:103E100002D4BC4200DA270036B2BF1B00D500270F
:103E2000079880690799C9680918009136B2012E70
:103E30002EDA401C3021009A1170012F04DA079904
:103E40003822895C090705D569460979079AD2683D
:103E50001154401C079988617042874200DA7E4203
:103E600036B2704207994862BF19A74200DA3C0097
:103E700024B20798C461220029000798C068079BF4
:103E80009B69C018FDF798FC381B07998862DAE037
:103E9000B44220DA220029000098FDF78DFC079932
:103EA00089690919079A9161301B079A5062012F9D
:103EB00004DA07983822805C000709D56846007943
:103EC000079AD26850540798C069401C0799C86186
:103ED00007988762B7E0320029000098FDF76CFC74
:103EE000079880698019A41B012F04DA07993822EA
:103EF000895C090705D569460979079AD268115482
:103F0000401C0799886124B2A74200DA3C0024B221
:103F10002200A9190798C068079B9B69C018FDF784
:103F20004BFC07988069001907998861381B07992D
:103F3000486288E0BC4205DA07993822895C0907A3
:103F400000D427007F1E00D5002708A80078672826
:103F500001D1652000E0452008A908700798806914
:103F6000411C079A91612978079AD2681154681CFC
:103F70000090012F04DA07983821405C000720D513
:103F800007988169481C079A90616A461279079BD5
:103F9000DB685A54012F14DB641E24B2A74200DAF6
:103FA0003C0024B222000099079BDB681818FDF73B
:103FB00003FC07988069001907998861381B0799E5
:103FC00048620798C06807998969411808A800786D
:103FD0000870300003D42B2048708D1C03E02D2284
:103FE0004A708D1C4642002404AF08E00A2202A851
:103FF00000F0C0FB03983870029E641C7F1C31B235
:104000000129F3DA022C08DA08A8007820210143FC
:10401000652902D1302028706D1C002C09D1302078
:1040200028706D1C07E0641E04A8005D3030287005
:104030006D1C012CF7DA0798C06807998969401848
:10404000281A0799C86107983821405C142101405B
:10405000102914D107984069079989694018079970
:10406000496A40180799C96940180799896A401830
:104070000799496B884202DA081A0799086209B061
:10408000F0BD00003000F1B50E0014000027002B39
:104090000FD01D002178B068009A9047B0600028CA
:1040A00006D0F06A401CF062641C6D1E01D0F1E77E
:1040B000FF433800F2BDFEE77047FEE7D2B2203A78
:1040C00003D301009140002070475242D041524238
:1040D000203291404140D040904041407047FEE73F
:1040E00030B4434351435D18010C0C00130C5C4386
:1040F0002D1980B2434392B251430024C918644140
:1041000024040B04090C09195043C018694130BC40
:104110007047124224D0994228D970B500251B421D
:1041200002D00C00002109E0002401264918644156
:10413000944200D3A41A7641F8D33100012601E05D
:10414000764109D2001864416D41A41A9D41F7D20D
:10415000A4185D41B619F5D3300022002B0070BDC4
:104160001B42D8D108B500F015FB08BD01D1904223
:10417000D3D202000B0000210020704770B5FDF77C
:10418000DCFB0400208880042DD565680026F643FA
:1041900008E04A1B2900FDF785FDB0420DD000283C
:1041A0000BD02D1803202056E1688D42F1D3002258
:1041B0000021FDF777FDB0420DD16068E0606061DD
:1041C000E062208880218900014321802000FDF7E2
:1041D000CAFB300070BD6568E5606561E5622088F6
:1041E0001149014021802000FDF7BDFB002070BD7A
:1041F000F8B5002815D1FDF712FB00240B4D082659
:104200000027FF432868002804D0FFF7B7FF0028E5
:1042100000D53C002D1D761EF4D1FDF70FFB2000CC
:10422000F2BDFFF7ABFFF2BDFFDF000094030020FB
:10423000F8B504000F0015001E0000F0ADFA3300C1
:104240002A003900200000F0BBFAF2BDC9B200E03C
:10425000401C02788A4202D0002AF9D1002070471F
:10426000C9B201E0401C521E002A03D003788B42E1
:10427000F8D170470020704780B500F08DFA01201A
:1042800002BD70B504000D00160000F085FA320082
:104290002900200000F08AFA70BDF0B50E005E40E3
:1042A0000125ED072E40B446AE0ADF184C18F44243
:1042B00008D2F7420ED2640D01D07F0D12D100203A
:1042C0006146F0BD05D1F74201D87F0D05D1002030
:1042D000C143F0BDFBD1640DF9D00020C1434905B5
:1042E00049088FE0E419C902DB0229432B43DB0AAA
:1042F000460DC00231438E4630B487B295B27D433D
:104300002E0CADB2140C7C43A419260C24042543B6
:104310009CB27C43A419190C7943270CC919A4B287
:104320000F043C43090C000C97B247432E0CBE19F6
:104330003543ADB2170C4743360CBF19A6B2BF19AF
:104340003E043543240C3E0C36199FB24743BF1937
:10435000BCB23E0C89191F0C47437F183E043443FE
:10436000390C704680B297B247432E0CBE193543C4
:10437000ADB2170C4743360CBF19A6B2BF193E04A5
:104380003543240C3E0C36199FB24743BF19BCB2CB
:104390003E0C89191F0C47437F183E043443390CE7
:1043A00077463F0C90B278432E0C80190604ADB2CC
:1043B0002E43050CA0B22D18120C7A435019020C92
:1043C00080B2240CA4189AB27A4312191404204320
:1043D000120C89181B0C7B43C91830BCEF0A3942F8
:1043E00003D1B61940414941641E6F12BF0DE41B51
:1043F0000BDBFF19BC4211DA240500274208AE414D
:104400007841614166463143F0BD641C05D1401CD2
:104410006141CF0201D34908F4E750E75DE730B4CA
:10442000012464054D00EC420BD85D00EC4208D835
:104430000C001C4364000443144304D2994200D18D
:10444000904230BC7047FCD08B42FAD18242F8E7F0
:10445000F0B40E005E400125ED072E40B446AE0AD2
:10446000DF184C18F4423BD2F74241D2640D43D0DE
:104470007F0D38D0E41BC902DB0229432B43CF0A4E
:10448000DB0A0600B61A9F4104D2641EB6197F41AA
:10449000B6185F416812800D24180018844222DA91
:1044A000E80C0021B6197F41B61A9F4102D2B61816
:1044B0005F413F1C40414941F4D3241C21DD2405C8
:1044C000B6197F41B61A9F4105D33743C607374314
:1044D0000026012F7041614166463143F0BC7047B0
:1044E000FCD1F74205D20020C14349054908F3E752
:1044F00004D00020C143F1E77F0DFAD000206146CF
:10450000ECE72442FAD1401C61410F03F6D30020AE
:10451000E2E7FEE74A1812D2400DC9020843012122
:10452000C9070843520D40210901521A521C06D4F2
:1045300052421F3201D4D0407047C017704700204C
:104540007047FEE7010000BF42221201D21E004266
:1045500007D002D4521E0018FCD5C10A400512052E
:10456000891870478B4200D1824205D984461000D9
:1045700062468C4619006346DF184C18640D7F0DA7
:104580003AD0661C760537D0E61B352E34DCDB02CC
:104590002B43DB0A0C0DC9022943C912202E0DDB67
:1045A0001700203E06D01F00F741F3405F40002671
:1045B000012A7741C01871410DD217E01700F74169
:1045C000F2405740F3415A40B340F3405A4000266E
:1045D000801859410AD3A21C52050FD0C207012FDF
:1045E000724117004008CB0718434908641C240592
:1045F0004208AF4170416141F0BC7047641C210525
:104600000020F9E76B4010E06B40ABE7F742F3D1D5
:10461000E943F1E72442EFD100200021ECE7F0B4B8
:104620000125ED070F005F40EED40C00871A9C4176
:1046300005D2C01BA141D219634169406B40AE0A4B
:10464000DF184C18F442E1D2640D7F0DE2D0E61B76
:10465000362ED1DCDB022B43DB0AA4460C0DC9024B
:104660002943C90A012E28DC04D1D6075208DF07E6
:104670003A435B08EF0A76429041994114D039429F
:104680003BD1B61940414941761C394204D1761CD0
:10469000001849413942FAD0B9436746B74208D9B0
:1046A000A41B24052143A7E70042EAD13642E8D102
:1046B000A2E7E40AE10700209EE7202E0BDD203E62
:1046C0001F00F340F7415F40012A002257417E421C
:1046D000984191410BE01700F741F2405740F341F8
:1046E0005A40B340F3405A407E42904199410A03F8
:1046F00003D2641EB619404149410027641E2405B7
:104700004208AE4178416141F0BC704780B5124823
:10471000FDF762FF11A1016041608160C16001612C
:10472000416181610EA242628162C16201634163A3
:104730000CA282630DA2C2630164416401BD10B585
:104740000548FDF749FF04002068002801D1FFF764
:10475000DDFF200010BD00002C0400200000000040
:104760002E00000066616C73650000007472756550
:10477000000000007CB504000E0015003000290088
:10478000FEF79EF900904543701B0190684603C8F0
:1047900003C473BD7047FEE780B50348FDF71CFFF7
:1047A000806902BD00000000C0030020002804D181
:1047B0000EA003C803C2002070470170012070479B
:1047C000002904D10BA003C803C300207047002AAE
:1047D00002D10120C0437047002801D00A7802802E
:1047E0000978481E8041C043C00F70470000000098
:1047F000000000000000000000000000FFB5FE48BF
:104800007F2100680A27C90095B0D75F4118099138
:10481000012189024118496A0F9151791D461446B8
:104820004B06F64A0E92002B01DBEA077ED00022EF
:104830001092626B04920C22A25E0392A278A3698A
:104840005207520F0293052A3DD0032A3BD0012282
:104850000A92BF2211406171169910310091E90747
:104860000AD03C2110911699083100270297169A18
:10487000049703970091D7650146E0310B7F9B06B3
:104880006FD5897F89076CD5002013901490DC4880
:104890000088DB494007C00D0C314018C189012058
:1048A0004007091849880E180E983621807D034666
:1048B0004843D44941182A20405C0690F079800989
:1048C000012802D006E00022C2E73078400601D578
:1048D000012000E000200190C848203040790128E4
:1048E00016D9FF2B14D00A98002804D0707B8009B9
:1048F000012804D00CE0062213A8503106E03078DD
:10490000000605D531460622083113A800F0D4FB75
:10491000019800282BD00E98807DFF2822D00622F7
:10492000B11C11A800F0C8FB069800E06BE0C100C4
:10493000B548062209180691491D009800F0BCFBF5
:104940000699062208790099801C88710E983621F4
:10495000807D4843AB494018B11C573000F0ACFB98
:1049600008E02FE00622B11C009800F0A5FB002013
:104970001190129016980399C06D049AC3B20298D0
:1049800089B20003000C92B205910690079304923D
:10499000009811AA41680190090213AB090E9648CC
:1049A00002930392009100680A9BA030007810994E
:1049B000BAB2C00701D0002000E01020803000F023
:1049C0008FFB20E01699029AC96D039BC9B2049E21
:1049D00012030591120C9BB2B6B200990296039392
:1049E00004924A6801911202120E0092A0300078DF
:1049F0000A9B1099BAB2C00701D0002000E0102035
:104A0000803000F0B5FB16982907C0300790169843
:104A100080300390002978DA2069E90301D5162651
:104A200019E0A90301D5132615E0290301D528268D
:104A300011E0E90201D53D260DE0690201D52226EB
:104A400009E0690306D56179090601D4082602E068
:104A50003E2600E01F2607993822897B51430F9A92
:104A60008918A14202D1079A082191730799382227
:104A7000C97B51430F9A8918A14202D1079A082194
:104A8000D17305218902084222D0280420D5208A2A
:104A900040040ED55848BAB200683146A0300078BC
:104AA000C00701D0002000E01020803000F09CFB07
:104AB0000EE05148BAB200683146A0300078C00715
:104AC00001D0002000E010200023803000F0B0FB77
:104AD000E56903E028466D6900F0D0FB002DF9D1AF
:104AE0000020E0614448A0210068095CC90700D0AB
:104AF00000E010250021022280350691BFB2E906B0
:104B000004D50221BF20054005E014E0E030407DDF
:104B1000C0060CD50021284600F0C0FB010006D0DD
:104B2000069A0A71CF800E72284600F01BFC002006
:104B3000054620616FE2680622D5A0784007400F45
:104B4000052801D1A169616105280DD0A069BAB21B
:104B50000003010CA08901910090A08E002183B276
:104B6000802000F013FC56E2206B428901890192FB
:104B70000091C388BAB20021802000F007FCB4E1A4
:104B8000680722D51C48802600680222E030807D1C
:104B9000BFB20007CED50B21304600F07FFB0100ED
:104BA000C8D08F80159A3046D2788A71159A537979
:104BB00017791A023A430A81159AD37997791A021A
:104BC0003A434A8100F0CEFB25E22805800F70D0E1
:104BD0000120089000200C9068051ED50998866970
:104BE000C0693178727B0F073F0F9209012A0DD1FE
:104BF000C9090BD001210AE0CC020020C83E0020E8
:104C0000C0000020883B0020F03E002000210C91D5
:104C1000022F0DDD062F09D10AE01698066B0998C0
:104C2000006A31780F073F0F042F01D0002108914F
:104C30000399897F002937D00121079100210A912A
:104C400001780B91014613318C4601910A9916E0C7
:104C50000021059162467318525C9B789A4201D0FC
:104C600001220592491C0629F4DB059A0799114097
:104C700007916146891F8C460A99491C0A910B9A33
:104C80009142E5DB079900299ED0511C042900DDE3
:104C900004210170411C1222C01D00F0A3FB06225A
:104CA000B01C019900F09EFB062F03D0022F03D009
:104CB00003E0CBE0022700E0032730784006C00F76
:104CC0000590012F09D07078801FC006C00E029099
:104CD000F5480178012915D023E0002002906946AB
:104CE000304600F088FBF04800780028F0D1169894
:104CF00000990068814265D1169801994068814207
:104D0000F9D10EE00E99497DFF290AD03622514390
:104D100008182030807AC100E44808180079801C07
:104D2000059008980028AFD0E14800680146E031BE
:104D30000A7F920647D5897F490744D516992031C5
:104D4000097901293FD9012F3DD10C9900293AD089
:104D50000E99A37B4A7D0121FF2A1BD000913621A9
:104D60004A43D14908365118019602932031897A75
:104D7000CA00CE4951184B1D0979891CA030CAB20E
:104D800000780121C00701D0002000E01020A126FA
:104D900030430FE0324608326F460EC7A03000782D
:104DA0000121C00701D0002000E01020A122104303
:104DB000B31C012200F036FB0028B4D00998002172
:104DC000006A017027E1B8490978012921D10E99BB
:104DD000497DFF291DD0A37B029A009236225143C0
:104DE000B14A08368918019602932031897ACA009F
:104DF000AE4951184B1D0979891CA0300078CAB200
:104E00003946C00701D0002000E01020A126304321
:104E100013E0A37B3246029908320091019202937B
:104E20000599A0300078CAB23946C00701D00020E9
:104E300000E01020A1231843B31C00F02DFB002834
:104E400003D009990020096A0870E4E0E80424D539
:104E5000802001900020049015980322C01C05902A
:104E60009348BFB20068E030017F890638D5407FA3
:104E7000000735D50D21019800F010FA06002FD05B
:104E800004993171F7800822B018059900F014F9DF
:104E90003146019800F066FA22E0680429D5208A9C
:104EA00040040ED58248BAB20068A0300078C0072E
:104EB00001D0002000E010200021803000F094F9A3
:104EC0000EE07B48BAB20068A0300078C00701D07D
:104ED000002000E0102001230021803000F0A8F91C
:104EE000A0784007400F052802D107990820887351
:104EF00091E028021FD5208A00051BD56C48BAB264
:104F00000068A0300078C00701D0002000E0102029
:104F100000231A21803000F08BF9A0784007400F61
:104F2000052802D107990820887343212069890246
:104F3000884320616FE0280661D515980D300190F7
:104F400006A80A901E9826300990002001461E9A55
:104F500011541E9A12185171401C0528F7DB1E9837
:104F6000802141725248A0210068095CC90701D024
:104F7000002100E0102180310091B9B20C91159907
:104F8000C91C0B9115990A7BCB7A11021943089120
:104F900000990322C90605D500980621BF231840B1
:104FA000009008E0E030017F890616D5407FC006FA
:104FB00013D50421009800F071F906000DD00C986B
:104FC000B080371D0822B01D0B9900F075F80898C5
:104FD00078813146009800F0C5F908220A990198B5
:104FE00000F000FA019804220830099900F0FAF95B
:104FF00003980699C1630398079901640BE0A8021E
:1050000009D50799082088732A4800884007400F6F
:10501000401C00F081FAA80604D5E0694169E1610D
:1050200000F02CF9E80608D5039803994069026856
:105030004A616189018100F0CFFAE80132D51E98FA
:10504000C1890120400709184988081801784906D4
:10505000CE0F05A900F0CFFAA1200190A77B0598FB
:10506000079006980890124802220068FF3001302D
:10507000007FC00716D00E21019800F00FF9040040
:1050800010D02771251D6671042207A9A01D00F00C
:1050900013F8042208A9A81D00F00EF82146019873
:1050A00000F060F919B0F0BD883B0020F03E002010
:1050B000CC020020C000002010B50400FCF77CFBEF
:1050C000200010BD10B5040010000A0001002000EF
:1050D00000F0A8FA200010BD80B500F0CDFA02BDA6
:1050E000FFB517460646082281B0C00603D50A213F
:1050F000BF2006400CE01D480068E030017F8906B3
:1051000002D5807F800702D4002005B0F0BD0821C1
:10511000304600F0C3F8040026D002982071E780E2
:10512000049820720A9860722046251D06220A30D3
:105130000B99FFF7C1FF284606220C300C99FFF7A8
:10514000BBFF2846062212300D99FFF7B5FF0E98D7
:1051500028830F9868831098A8831198A877214610
:10516000304600F0FFF8CFE70720CEE7CC02002062
:10517000FFB50646052281B01F46C00603D50521AE
:10518000BF20064009E017480068E030017F89062B
:1051900022D5407FC0071FD00321304600F07EF8A3
:1051A00004001CD0029820710398E08027720A98AE
:1051B00060722046251D06220A300B99FFF77CFFFE
:1051C0000C98A8810D98E8810E9828820F98A874F1
:1051D0002146304600F0C6F8002005B0F0BD07209B
:1051E000FBE70000CC02002070B515460446012202
:1051F0000E46C00603D50421BF20044008E00B483A
:105200000068E030807E000601D4002070BD0221DD
:10521000204600F043F8010005D00E71CD802046F5
:1052200000F0A0F8F1E7072070BD0000CC020020DC
:10523000F8B51646044602221D460F46C00603D5A1
:105240000321BF20044008E00B480068E030407DA7
:10525000000601D40020F8BD0121204600F01EF810
:10526000010006D00F71CE800D72204600F07AF852
:10527000F0E70720F8BD0000CC02002070B59025B3
:10528000044601220021284600F008F8010003D05E
:1052900028464C6000F066F870BDFEE7F7B5304E6A
:1052A000054600073168800E4118032000020818E7
:1052B0000027C46982B09446280616D572B601ABA1
:1052C0006A466146204600F0EBF900280BD068469C
:1052D00081880098827892089200827001806180B3
:1052E000012762B615E062B621E001AB6A4661466D
:1052F000204600F0D5F9002819D0680609D4684680
:105300008188009882789208920082700180618082
:1053100001270098AA00817840238907890F1A4045
:10532000114381700399C170002F0ED115E0002048
:10533000009072B6A8060FD4032031680002081846
:10534000816808221143816062B672B63068F72224
:10535000403041781140417062B6009805B0F0BD10
:10536000CC0200200A46400608D5D07838280AD258
:10537000054980000B58111D104618479078800889
:105380008000801C8870704700540510F8B51646E0
:10539000044603221D460F46C00603D50F21BF2039
:1053A00004400BE00E480068E030017F890602D51A
:1053B000407F400701D40020F8BD0C212046FFF7B4
:1053C0006DFF01000AD00F71CE800D81069A4A81CF
:1053D000079A8A812046FFF7C5FFECE70720F8BD52
:1053E000CC02002004E003780B70401C491C521EC4
:1053F000002AF8DC704770B504460D46083000F00E
:1054000085F9E17A0002000A090608432860607BFA
:10541000217B000208432178C90909040843686018
:1054200070BDFEE7FFB516460546042281B0C006F2
:1054300003D50B21BF2005400CE016480068E03082
:10544000017F890602D5807F400702D4002005B085
:10545000F0BD09212846FFF721FF040017D002986C
:1054600020716671271D0622A01D0499FFF724FEF6
:105470000A9838723846062209300B99FFF71CFE4D
:105480000C98F87321462846FFF76CFFDEE70720EB
:10549000DDE70000CC020020FFB581B006460A9887
:1054A000032113300843401C8208F00603D507216E
:1054B000BF2006400CE017480068E030017F8906F5
:1054C00002D5407F800702D4002005B0F0BD052141
:1054D0003046FFF7E3FE05001AD0029828710398C2
:1054E00068712F462C1D18370622A81D0499FFF756
:1054F000E3FD0A982072E76038460A9A0B99FFF795
:10550000DBFD0C98207429463046FFF72BFFDBE7C4
:105510000720DAE7CC020020FEB52D490B68652193
:10552000C9005C180121890259184A6AAF21890013
:105530005918012600E0401C082843DA8F7C3546C4
:1055400085402F42F7D038254543AD18AD786D071B
:105550006D0F052DEFD10021009101917D25214690
:105560006D02C0314D818873382148438518184633
:10557000052269464230FFF735FF8020009901512E
:105580007C21019808550C20285E08210622695EBE
:10559000504309300F18296B0E480860286B05220C
:1055A0008760687930436871296B6846C91CFFF7CA
:1055B00019FFA8790221C006C00E0843A871403423
:1055C0002787FEBDC034207AFD2108402072FEBD31
:1055D000CC0200200308010070B59025044601228A
:1055E00011462846FFF75AFE010003D028464C60BA
:1055F000FFF7B8FE70BD70B504460D46801C00F084
:1056000085F861790002000A090608432860E079FC
:10561000A1790002084321784906C90F090408430B
:10562000686070BD1206130A1A43130C1A4300BFB8
:10563000094205D0830705D00270401C491EF9D1EC
:1056400070470000130030B414001500103902D365
:1056500010393CC0FCD2490700D30CC000D504C0AF
:10566000890002D30280801C002900D5027030BC62
:10567000704700000022E5E710B402E0401C491C1E
:10568000521E002A09D00B7804789C42F6D002D230
:105690000020C04302E0012000E0002010BC704761
:1056A000F0B54488491CA5B2ECB2AD081D8089B2A2
:1056B00087886E18BE4203D9491B641C89B2E4B2C4
:1056C000AD002D18083515601D88A4076D18AD00B4
:1056D000A40F2543ACB21C800388E41AA3079B0FD8
:1056E000012B02D803D1002C01DD00230BE00123A4
:1056F00009B2002907DA11688C78A408A400641C98
:105700008C70083010601846F0BDFEE7C3788278D0
:10571000417800781B021A4309021204084310431F
:105720007047FEE7F3B5FFB090B099480078089055
:10573000984800885A90984800685990E348006853
:105740005890E24840685790E04880685690DF489B
:10575000C0685590DD4800695490DC48406953901A
:10576000DA4880695290D948C0695190D848C069D8
:105770005090D84880694F908020C00500684E90B6
:105780008020C00540684D908020C00580684C9006
:105790008020C005C0684B908020C00500694A90F9
:1057A0008020C005406949908020C00580694890EC
:1057B0008020C005C06947908020C005C06A46901F
:1057C0008020C005006B45908020C005406C44904F
:1057D000C94800684390C848007C4290C648008B86
:1057E0004190C548007F4090C44800783F90C3482E
:1057F00040683E90C148007A3D90C04880893C9006
:10580000BE48007F3B90BE4800783A90BC48007983
:105810003990BB48007A3890B948007B3790B84837
:10582000007C3690B74800683590B64840683490A0
:10583000B448007C3390B348007D3290B248007881
:105840003190B14880883090AF4880682F90AE4842
:1058500080892E90002000906DA801906BA8029086
:1058600069A8039067A8049065A8059063A861A93A
:105870005FAA5DAB5BAC009D2D05A44EAD192E68F3
:10588000019F3E606E68029F3E60AE8B039F3E604C
:105890002E8C049F3E60AE8C059F3E602E8D066070
:1058A000EE6A0E604C352E8816606E681E60ED68DC
:1058B0002560009D6D1C0095241D1B1D121D091DDA
:1058C000001D059D2D1D0595049D2D1D0495039D11
:1058D0002D1D0395029D2D1D0295019D2D1D0195E8
:1058E000009D022DC7DBB020000600682D90884C7B
:1058F00020682C9060682B90A0892A90208A29909B
:1059000060692890207E2790A08D2690206B25909E
:10591000606B2490A06B2390E06B2290206C219010
:10592000606C20907B4800881F907A4880881E9089
:105930007848007B1D907748007C1C907548808AD1
:105940001B907448007E1A90734800881990724822
:10595000808818907048007B17906F48007C1690E4
:105960006D48808A15906C48007E14906B480068E2
:1059700013906A484068129069480068119068481E
:10598000007A109067480068002807D1664806E052
:10599000080020400400104000E100E000200790D3
:1059A000002087A97FAA77AB6FAD86003618B600B6
:1059B0005E4FF61937680F6077681760B7681F6029
:1059C000F6682E60401C2D1D1B1D121D091D082888
:1059D000EBDB8120C00500880F908120C005406866
:1059E0000E908120C005007B0D908120C00580694C
:1059F0000C908120C005406A0B908120C005806A10
:105A00000A904B48006809908FA8007806900328F8
:105A100005D148490868C022920502430A60002067
:105A200045490D68283D454EB562B16A0A68830054
:105A3000F250401C091DB1620A28F6DB0120FCF778
:105A4000B4FD3F4F0020387000F08AFA0020FCF7C8
:105A5000ACFD3878002800D080E03A48016849065B
:105A600040D439490A6801685140384B1B68184CCA
:105A7000246AA3421DD10068824203D0D74800683F
:105A8000084016D132480068802149050A000240CA
:105A90000F4B1B6819408A420BD18021C904084072
:105AA0000B4A1268114088421CD01C4800688007CD
:105AB00018D52049C8680209D01C80235B0398428E
:105AC0000AD2CA68120982420CD2FAE700E400E066
:105AD00004ED00E008009040C86800091D4BD31891
