S01E00006D6265642D6F732D6769616E2D626C7565312D6230352E7372656399
S3151004000030080020E15804103D5904103F590410DB
S3151004001000000000000000000000000000000000C6
S31510040020000000000000000000000000C7190410C2
S315100400300000000000000000031E04107B1E0410C4
S31510040040F7210410A3230410000000000000000090
S31510040050431F0410FF250410872704101B300410B7
S315100400600000000000000000000000000000000076
S3151004007000000000FB400410FF400410234104104C
S31510040080000000005745041021520410874504103F
S31510040090DB470410634A041037500410335104101C
S315100400A00000000000000000000000000000000036
S315100400B00000000000000000000000000000000026
S315100400C0E022520080180268914203D34368D21882
S315100400D0914202D380680028F5D170471848016808
S315100400E000290ED18021490281600909416000214D
S315100400F0C943C160016104214161124A1160124968
S3151004010001600120704730B407230C0008341C42E8
S3151004011001D1002304E008240D000835641B234094
S31510040120C918D21A8161C260012313434B60282374
S3151004013089184B6002490969C16130BC70470000D7
S31510040140E8230020EC2100206859883CF0B587B0DC
S31510040150040007200D000835054205D008250E00B9
S315100401600836AD1B054049190291110008310142A8
S3151004017005D0082115000835491B08401218170028
S315100401800298C018039005460298381AC01A0190AE
S315100401900326334302984360BD4201D301F0ECFABF
S315100401A03879C00701D401F0E7FA0198102801D272
S315100401B001F0E2FAA069874208D1E0680199401873
S315100401C0E060A5610121014369606AE160698742C3
S315100401D009D1A06801994018A06065610121014305
S315100401E0696028505DE178680640012E00D0B9E0B8
S315100401F0072188430590C00820283CD2B96800918D
S31510040200FE680490B74201D101F0B6FA009887420D
S3151004021001D101F0B1FA7868072188430499C9001D
S31510040220884201D001F0A8FA0498C0002018009959
S3151004023002002832914207D02269914200D289E005
S31510040240C968B94200D085E000998E4206D120686B
S315100402500121049A9140884320607DE0283086422B
S3151004026005D02069864275D3B068B84272D1CE6083
S315100402700098B06070E0B8690090FE68BE420CD079
S31510040280B8682169884225D3C168B94222D1B168B8
S31510040290B9421FD1C660B0601EE03800143006683B
S315100402A0002E07D1380010300668002E14D001E055
S315100402B008000668310014310A68002AF8D13100A2
S315100402C010310A68002AF3D12169884202D3002129
S315100402D0016001E001F050FA009800283CD0F8695A
S315100402E08000201898214900401801688F4209D1CE
S315100402F00660002E14D160680121FA699140884382
S31510040300606029E000982169884207D30069B842E1
S31510040310009801D1066103E0466101E001F02CFA70
S31510040320002E19D02069864214D30099B161396917
S31510040330002906D0814202D331618E6101E001F0B9
S315100403401BFA7869002807D02169884202D37061A4
S31510040350866101E001F010FA05983F180198059995
S315100403604018019078680121884378600198014308
S315100403706960019828500198C008202822D200905C
S31510040380C000271828373E000198102801D201F022
S31510040390F3F9206800990200CA40D10705D4012157
S315100403A0009A91400143216007E0B86821698842A8
S315100403B001D3060001E001F0DFF9BD60F560AE601F
S315100403C0EF606EE00198000A01D1002225E0802139
S315100403D04902884201D31F221FE0FF21C943411855
S315100403E0090C082211408840304A8218120C042342
S315100403F01A4090402E4BC3181B0C022633400E266F
S31510040400711A891AC91A9840C00B08184100019A22
S31510040410C01DC240D007C00F0A189000201898219A
S3151004042049004118EA6100206861286163681E006A
S31510040430D640F60705D401209040184360600D603D
S315100404401BE009681F2A019B05D019265208B21A07
S31510040450934000E011004A680726B243019EB24257
S3151004046010D0DA0F92008E1810365B003268002A0C
S31510040470F0D12069864212D33560A961ED600398E4
S31510040480A8600EE08A682369994208D39A4206D373
S31510040490D560039B8B60AA60E960A86101E001F056
S315100404A06BF90298083007B0F0BD000000F0FFFFAA
S315100404B000C0FFFFF2B586B004008F48006800281C
S315100404C001D1FFF70BFE8C488168069840182F302F
S315100404D0491E88430699814200D3DCE1D82149009C
S315100404E061188968002909D0D8225200A258101818
S315100404F0824200D3CFE1814200D2CCE101F046F929
S31510040500002800D1C7E1009007680021C94388423A
S3151004051000D1C0E1D82040002058C019D821490084
S31510040520605061184968814200D20100D820400009
S3151004053020184160A069002839D12069002802D00A
S315100405400099814201D2009820610098D82149006F
S3151004055061180861D8204000201847610026D82069
S3151004056040002018C6616448006860620020C043D9
S31510040570206220002830C060014681600831416144
S315100405800161B61C1030202EF5D3C448844203D121
S31510040590283F3A00009926E0201F00680721884367
S315100405A0211808390098C019421A283A1BE0E0208D
S315100405B04000201800E08068002818D000990268CE
S315100405C04368D2189142F6D1017B09070FD4A16969
S315100405D0026891420BD3D218914208D2D9194160BC
S315100405E0E068C219A1692000FFF78DFD3FE100986C
S315100405F02169884200D22061E02040002018009929
S31510040600C91900E08068002810D002688A42F9D11E
S31510040610017B09070AD4009901604168C919416030
S31510040620069B00992000FFF791FD35E1A069039020
S31510040630054629002000FFF743FD016840680818A5
S31510040640059027380026410701D1002003E0082130
S31510040650081A4007400F059908182F382900103139
S31510040660884201D2019500E0019001981830029059
S3151004067004963800283800990831490701D1002119
S3151004068005E00821009A0832891A4907490F401AC9
S31510040690009A5118A161E060012202434A6028229F
S315100406A00818426014480069E06101980830400750
S315100406B001D001F061F81B200199486001980830B7
S315100406C0E02149006118102201F08AF80098D82117
S315100406D0490061180861D820400020184761D820C5
S315100406E040002018C66101980830D82149006118C5
S315100406F08861059805E000BFE82300200299091DCA
S3151004070002910721029A51600499491C0491029995
S3151004071008318142F2D30498022801DA01F02CF848
S315100407200198A84200D1A2E0411B426801239A43D2
S31510040730426001220A436A600160C808202821D257
S315100407400090C000271828373E00102901D201F066
S3151004075013F8206800990200CA40D10705D4012174
S31510040760009A91400143216007E0B86821698842E4
S3151004077001D3060001E000F0FFFFBD60F560AE6036
S31510040780EF6074E0080A01D1002228E01A049042AE
S3151004079001D31F2223E0FF22D2438218120C08230E
S315100407A01A40009290403E4A8218120C04231A40B2
S315100407B090403C4BC3181B0C02273B4001930E235D
S315100407C0009FDB1B9A1A019BD21A9840C00B101873
S315100407D04200C01D0B00C340D807C00F121890006A
S315100407E0201898235B00C0180090EA616E612E6190
S315100407F060680300D340DB0707D40121914001430D
S3151004080061600098056000981DE0009800681F2A32
S3151004081001D10A0006E0192352089B1A0A009A40CD
S3151004082000E0380043680727BB438B4210D0D30F30
S315100408309B00C318103352001F68002FF1D1216991
S315100408408B4212D31D60A861ED600398A8600EE078
S3151004085081682269904208D3914206D3CD60039AE7
S315100408608260A960E860AE6101E000F085FFE0688F
S31510040870069981420FD2401AE060A169069A8A1835
S31510040880A2610123034353600698032202434A607C
S315100408900800083000E0002007B0F0BD302000202A
S315100408A000F0FFFF00C0FFFFF2B584B00400002083
S315100408B0009004984542000A25D0802149028842B6
S315100408C001D31F201FE0FF21C9434118090C082238
S315100408D011408840B34A8218120C04231A409040DF
S315100408E0114BC3181B0C022633400E26711A891A93
S315100408F0C91A9840C00B08184100049AC01DC2407A
S31510040900D007C00F081881006118982252008B581E
S31510040910002B28D01F28049A03D019214608891BB6
S315100409208A40002103E000BF00C0FFFF52005E684A
S315100409300727BE43049FF61BAE4202D2009335002E
S315100409400CD05E69D70FBF00DB191B69002E02D0CD
S315100409509E4200D03100002BE8D10B00002B3FD172
S31510040960009900293ED101210122824050004342C0
S31510040970034362681A4000D178E150421040401E89
S31510040980020B10231A40D040430908263340D8409E
S31510040990860804273E400296F040460802273E4049
S315100409A00196F04046083140D218029BD218019B9A
S315100409B0D2185218C84010188000201898214900DF
S315100409C043580DE003005868072188430499401AD8
S315100409D0A84201D20500009318690028F2D15B6978
S315100409E0002BF0D10098002800D13FE1A0680499AB
S315100409F0401A854200D339E1009E2069864200D20E
S31510040A0032E16818029000984068072188430299D9
S31510040A10884201D000F0B0FE009804994718BE42EF
S31510040A2000D321E1806901900098C66886420DD0F2
S31510040A3080682169884225D3C168009A914221D1E0
S31510040A40B16891421ED1C660B0601DE014300668CC
S31510040A50002E07D1009810300668002E14D001E03D
S31510040A6008000668310014310A68002AF8D13100EA
S31510040A7010310A68002AF3D12169884202D3002171
S31510040A80016001E000F078FE0198002843D0009838
S31510040A90C0698000201898214900401800990268FE
S31510040AA091420AD10660002E16D160680121009A7F
S31510040AB0D2699140884360602DE00198216988428B
S31510040AC008D3006900998842019801D1066103E0B0
S31510040AD0466101E000F050FE002E1CD020698642CB
S31510040AE017D30198B06100980069002807D02169CE
S31510040AF0884202D33061866101E000F03DFE009821
S31510040B004069002807D02169884202D37061866142
S31510040B1001E000F031FE03200121102D0AD2029AC1
S31510040B201043009A50600098029A80184268114344
S31510040B30416096E0049A1043009A506001202843BD
S31510040B4078607D51E808202819D2C200A6182836E4
S31510040B50350022681300C3400B4003D18140114372
S31510040B60216007E0B0682169884201D3050001E0DD
S31510040B7000F002FEB760EF60BD60FE6071E0280A07
S31510040B8001D100222AE00A04904201D31F2225E053
S31510040B90FF22D2438218120C08231A400192904065
S31510040BA0004A01E000F0FFFF8218120C04231A40D9
S31510040BB09040304BC3181B0C0226334002930E236D
S31510040BC0019E9B1B9A1A029BD21A9840C00B1018AE
S31510040BD04200C01D2B00C3400B40D21890002018B1
S31510040BE098235B00C018FA6100237B613B6163683C
S31510040BF01E00D6400E4004D191401943616007602F
S31510040C001CE000681F2A01D1290006E019215208A8
S31510040C108A1A2900914000E01000426807239A437B
S31510040C20AA420FD0CA0F92008318103349001A68CB
S31510040C30002AF1D121698B4211D31F60B861FF607C
S31510040C40BF600EE081682269904208D3914206D3B0
S31510040C50CF608760B960F8600020B86101E000F0E9
S31510040C608BFD0098083002E000F086FD002005B0E8
S31510040C70F0BD000000C0FFFFF2B586B00400616845
S31510040C8048420840401E010B10221140C840420938
S31510040C9008231A40D040830804252B40D840450821
S31510040CA002263540E8408607F60F8918C9184919EF
S31510040CB08919F040081880002018982149004058D6
S31510040CC00700416807229143069A8D1A09E0080025
S31510040CD0416807229143069A891AA94201D20D0046
S31510040CE0070001690029F2D140690028F0D1206972
S31510040CF0874200D2D3E0A818019078680721884368
S31510040D000199884201D000F037FD069838180490EE
S31510040D10874200D3C3E0B8690090FE68BE420CD087
S31510040D20B8682169884225D3C168B94222D1B1680D
S31510040D30B9421FD1C660B0601EE038001430066890
S31510040D40002E07D1380010300668002E14D001E0AA
S31510040D5008000668310014310A68002AF8D13100F7
S31510040D6010310A68002AF3D12169884202D300217E
S31510040D70016001E000F000FD009800283DD0F869FC
S31510040D808000201898214900401801688F4209D123
S31510040D900660002E14D160680121FA6991408843D7
S31510040DA060602AE000982169884207D30069B84236
S31510040DB0009801D1066103E0466101E000F0DCFC15
S31510040DC0002E1AD02069864215D30098B06138696E
S31510040DD0002807D02169884202D33061866101E078
S31510040DE000F0CAFC7869002807D02169884202D32A
S31510040DF07061866101E000F0BFFC0320102D09D25A
S31510040E0001990843786001983818416801220A4309
S31510040E10426041E00699084378600120284304990A
S31510040E20486004984551A0680090C608202E01D346
S31510040E3000F0A2FC009800282BD06069039001965C
S31510040E40F00020182830029006460098102801D287
S31510040E5000F092FC206801990200CA40D10705D41B
S31510040E600121019A91400143216008E002988068AB
S31510040E702169884201D3060001E000F07DFC039845
S31510040E80029988600398F060039886600298039923
S31510040E90C860A560049860613800083002E000F06C
S31510040EA06BFC002007B0F0BDF0B587B0040000F06D
S31510040EB0B1FCBA4DF52C00D325E10B2C01D210242C
S31510040EC002E00B3407208443E00800902868009958
S31510040ED0C840032738424DD0012601228243881880
S31510040EE00090C00028182830029084680098C0002A
S31510040EF003906068072188430399884201D000F063
S31510040F003BFCA06801900298844201D100F034FCA5
S31510040F100198844201D100F02FFC606807218843B0
S31510040F200399884201D000F027FC0298019988425F
S31510040F3006D12968009A01209040814329600FE068
S31510040F4008462969884209D3C068A04206D1019887
S31510040F500299886002980199C86001E000F00CFCBF
S31510040F600398074367600398201841680E43466048
S31510040F70260007E1A968A14200D3D7E0002800D1D2
S31510040F80B7E00126009901228A405100009A904048
S31510040F904A420A43024051421140491E080B10228C
S31510040FA01040C1404A0908231A400092D1408A08C9
S31510040FB004231A400192D1404A0802231A4002928D
S31510040FC0D1404A083240009BC018019BC018029BAE
S31510040FD0C0188018D14040180390C0002818283033
S31510040FE00090806804900398C000029004984068AA
S31510040FF0072188430299884201D000F0BDFB04986A
S315100410008068019004980099884201D100F0B4FBDD
S3151004101004980199884201D100F0AEFB0498406807
S31510041020072188430299884201D000F0A5FB009855
S315100410300199884206D12968039A01209040814378
S31510041040296010E00846296988420AD3C0680499C1
S31510041050884206D101980099886000980199C86061
S3151004106001E000F089FB0298001B039027430498C3
S315100410704760049800190590039830430599486011
S31510041080039805990850A8680090C408202C01D329
S3151004109000F072FB0098002825D06869029001942C
S315100410A0E0002F1828373C000098102801D200F0D1
S315100410B063FB286801990200CA40324003D18E406E
S315100410C006432E6007E0B8682969884201D30400F4
S315100410D001E000F051FB0298B8600298E0600298B3
S315100410E084600298C7600398A86005986861049E96
S315100410F048E06868002836D021002800FFF7BCFDB8
S31510041100060013D045E03F20C043844202D3002496
S31510041110E4430BE00B34072084436868002805D0A9
S3151004112021002800FFF7C0FB060032D1A968A142AE
S3151004113019D30A1B686901260327102A08D3011933
S315100411406961AA6016434E608A502743476008E0D7
S315100411500022AA606A610F43476041184A68164321
S315100411604E6006000EE0E86884420DD2001BE8606B
S31510041170A9690A19AA610123034353600320204372
S3151004118048600E00083604E021002800FFF792F9A3
S31510041190060000F04EFB300007B0F0BD30200020F2
S315100411A0002800D17047F0B585B00838050000F066
S315100411B031FB474C2069854200D2D2E26B68032189
S315100411C003221A40012A00D1CBE2DE08F600AA193E
S315100411D0029201273B4241D12A680B4000D1C2E258
S315100411E0B6185342ED18854200D2BAE263699D429D
S315100411F000D102E1D108202900D380E0A86801902B
S31510041200E868009003910098854201D100F0B4FA81
S315100412100198854201D100F0AFFA68680721884326
S315100412200399C900884201D000F0A6FA0398C000B9
S315100412302018019902002832914205D02269914260
S315100412405AD3C968A94257D10099019A914243D1F8
S315100412502168039A012090408143216002988542B7
S3151004126000D37EE24068384200D17AE2810700D585
S31510041270C5E10299A269914200D0CEE0E0688119D5
S31510041280E160A5610F436F606069854202D1002059
S315100412906061A060E069884200D364E20D4800688A
S315100412A0002801D1FEF71AFFA169002900D15AE2DC
S315100412B0E068292802D32000FEF702FFE069E168FE
S315100412C0884200D34FE20020C043E0614BE200BFE6
S315100412D030200020E82300202830814206D008461A
S315100412E02169884208D38068A84205D10098D06045
S315100412F0019800998860B1E700F03EFAAEE7A96953
S315100413000091EA68AA420DD0A9680192814228D3B5
S31510041310C868A84225D19068A84222D1CA6001980B
S31510041320816020E0290014310A680192002A09D14B
S31510041330290010310A680192002A14D002E0110023
S315100413400A680192019A14321368002BF7D1019A94
S3151004135010321368002BF2D1814202D300200860A8
S3151004136001E000F009FA0098002800D176E7E86950
S315100413708000201898214900401801688D420AD12E
S3151004138001990160002915D16168EA69012090402C
S315100413908143616062E700982169884208D3006935
S315100413A0A8420198009901D1086103E0486101E05F
S315100413B000F0E2F90198002800D14FE7206901995D
S315100413C0814299D30099019A91612969002908D01B
S315100413D0814204D3019801610198886101E000F00B
S315100413E0CBF96869002800D138E72169884283D38C
S315100413F0019948610199816130E70298406801407A
S31510041400032900D02AE7A66002984068B8430299D7
S31510041410486037436F60AE51A5E16269914207D1C6
S31510041420A0688019A060656107436F6028509AE12F
S31510041430072188433618C00820284BD20299896898
S3151004144000910299C9680391019002980399884200
S3151004145001D100F091F902980099884201D100F067
S315100414608BF902984068072188430199C90088427C
S3151004147001D000F081F90198C000201800990200EB
S315100414802832914208D02269914200D2ACE0C96850
S31510041490029A914200D0A7E00399009A914206D18C
S315100414A02168019A01209040814321609EE02830F2
S315100414B0814209D008462169884200D294E08068A6
S315100414C00299884200D08FE00398D060009803995F
S315100414D088608BE00298806901900298C06802992E
S315100414E0884212D0029989680090206981422CD3CF
S315100414F0C868029A904228D100988068904224D1F4
S315100415000098C8600098816021E002981430016840
S315100415100091002909D10298103001680091002920
S3151004152015D002E0080001680091009914310A6888
S31510041530002AF7D1009910310A68002AF2D12169DC
S31510041540884202D30021016001E000F015F90198E8
S3151004155000284BD00298C0698000201898214900B1
S3151004156040180299026891420BD100990160002932
S3151004157017D161680298C269012090408143616065
S3151004158034E001982169884209D300690299884296
S315100415900098019901D1086103E0486101E000F067
S315100415A0EBF80098002821D02069009981421BD3BA
S315100415B00199009A916102990969002908D081421A
S315100415C004D3009801610098886101E000F0D4F812
S315100415D002984069002809D02169884204D30099E9
S315100415E048610099816101E000F0C6F8012030439A
S315100415F06860AE516069854208D1A660B3E0B8430D
S3151004160002994860012030436860AE51F0082028E2
S3151004161025D20090C0002018283001900290102E78
S3151004162001D200F0A9F8206800990200CA403A4095
S3151004163003D18F400743276008E001988068216929
S31510041640884201D3029001E000F096F80198856073
S315100416500298C5600298A8600198E86083E0300A91
S3151004166001D1002227E03904884201D31F2222E047
S31510041670FF21C9434118090C0822114000918840E2
S315100416803B494118090C04221140019188403949FB
S315100416904118090C022211400E22009BD21A019BFA
S315100416A0D21A521A8840C00B10184100C01D3200BD
S315100416B0C2403A408A1890002018982149004018D0
S315100416C00090EA6100206861286161680B00D340CC
S315100416D03B4007D197400F43676000980560009818
S315100416E0A8611EE0009909681F2A01D1320006E09C
S315100416F0192352089B1A32009A4000E039004B68AD
S315100417000727BB43B3420FD0D30F9B00CB1810331C
S3151004171052001F68002FF1D12069834210D31D6037
S31510041720A961ED60AD600DE08A682369994207D31B
S315100417309A4205D3D5608D60AA60E960A86101E07C
S3151004174000F01AF8206A401E20620CD1E4204000F2
S31510041750205800E080680028FCD10020C043206295
S3151004176001E000F009F800F064F805B0F0BD0000DF
S3151004177000F0FFFF00C0FFFF80B5012000F068F8FD
S3151004178001BD002801D0096801607047074908683F
S31510041790002801D0002070470548072290430860AE
S315100417A004499143091A0160704700BF342400208C
S315100417B03708002030200020124207D08B0706D0AD
S315100417C00B78491C0370401C521EF7D870478307C8
S315100417D006D00B78491C0370401C521EF9D1704771
S315100417E070B4103A03D378C9103A78C0FBD25307B1
S315100417F001D318C918C001D508C908C0D20704D323
S315100418000B880380891C801C002A01D50B78037071
S3151004181070BC704780B5012000F0B3F801BD80B5E7
S31510041820022000F0AEF801BD80B5042000F0A9F83E
S3151004183001BD80B5012000F0B6F801BD80B50220C7
S3151004184000F0B1F801BD80B5042000F0ACF801BD7C
S315100418502021090326311820ABBEF9E710B5574CE1
S315100418602068002832D0201D00F0AAF82000083085
S3151004187000F0A6F820000C3000F0A2F8200010307A
S3151004188000F09EF82000143000F09AF8200018306A
S3151004189000F096F820001C3000F092F8200020305A
S315100418A000F08EF82000243000F08BF82000283049
S315100418B000F087F820002C3000F083F82000303038
S315100418C000F07FF82000343000F07BF810BD10B51E
S315100418D03A4C201D00F076F82000083000F072F81B
S315100418E020000C3000F06EF82000103000F06AF87A
S315100418F02000143000F066F82000183000F062F86A
S3151004190020001C3000F05EF82000203000F05AF859
S315100419102000243000F070FA2000283000F06CFA11
S3151004192020002C3000F068FA2000303000F064FA01
S315100419302000343000F060FA10BD38B504001F4D95
S315100419402868002801D1FFF7C2FF01202860002C67
S3151004195007D0A078082804DA80002818001D00F0A3
S315100419604CFA200032BD002800D1704780B580782B
S31510041970082805DA114980000818001D00F03EFAFF
S3151004198001BD38B504000D4D2868002801D1FFF7B4
S315100419909EFF01202860052C04D2A00028182430AC
S315100419A000F02DFA31BD052800D3704780B50349E0
S315100419B080000818243000F023FA01BDB02300205B
S315100419C0704770477047FEE738B50500B24C206C77
S315100419D0002802D1200044302064206C21004431B8
S315100419E0884204D05D22AD49AD4800F00BFA0020C0
S315100419F0002221000B68AB4200D10860521C4B68D0
S31510041A00AB4200D14860521C8B68AB4200D188604F
S31510041A10521CCB68AB4200D1C860521C1031102A3C
S31510041A20E8D3206C002802D1200044302064206CB6
S31510041A3021004431884204D05D229849984800F028
S31510041A40E1F931BDF1B586B00F0000BF7DA100F0FC
S31510041A5003FA002810D1B048006800280AD1AF4C08
S31510041A600B220821200000F009FA96218901200092
S31510041A7000F04AFA002094E074A1069800F0ECF9FC
S31510041A80002810D1A448006800280AD1A34C0B22C0
S31510041A900821200000F0F2F996218901200000F0B7
S31510041AA033FA01207DE000BF6AA1069800F0D4F94C
S31510041AB0002810D19848006800280AD1974C0B22A8
S31510041AC00821200000F0DAF996218901200000F09F
S31510041AD01BFA022065E0704D286C002802D12800FC
S31510041AE044302864286C29004431884204D05D228D
S31510041AF06A496B4800F086F900260024280001681C
S31510041B0000290FD0641C416800290BD0641C81681D
S31510041B10002907D0641CC168002903D0641C103046
S31510041B20102CECD3102C14D300F024FA18210160D5
S31510041B30286C002802D1280044302864286C290017
S31510041B40443188423DD05D225449554800F05AF933
S31510041B5037E0A000281801900020C04301990860BE
S31510041B60286C002802D1280044302864286C2900E7
S31510041B704431884204D05D224849494800F042F96C
S31510041B800296069800783A280DD104220698411C2C
S31510041B906846FFF711FE00980290029801990860B2
S31510041BA0E01C07B0F0BD069903A800F0EBF900F0AD
S31510041BB036FA002808D100F0DDF9132101600198E6
S31510041BC006600020C043ECE703A800F00DFA0028D5
S31510041BD003A802D000F013FADEE700F0F5F900903E
S31510041BE00028E8D03D00B807800F07D0022801D09E
S31510041BF002D304E0022502E0012500E00025F805E1
S31510041C0003D528008025AD0005430820074202D0DD
S31510041C10290008250D43B80503D528008025ED00B5
S31510041C20054303A800F0CEF92B00020002A9009880
S31510041C300568AD68A8470500AFD000F09BF9694266
S31510041C40BCE700002F737464696E00002F7374640C
S31510041C506F7574002F7374646572720010B503285F
S31510041C6018DB0D49800009180C39086800220A602F
S31510041C70002803D100F07EF9092107E001684969BB
S31510041C808847040006D500F075F96142016000200A
S31510041C90C04310BD002010BD1C2300207056041034
S31510041CA0A8580410F8B50C00170003281ADA1A48B5
S31510041CB0006800280AD1194E0B220821300000F0C2
S31510041CC0DDF896218901300000F01EF9002F21D08D
S31510041CD03D00124E2178300000F00BF9641C6D1E85
S31510041CE0F8D117E02D49800008180C380068002830
S31510041CF006D100F03FF9092101600020C043F2BD6E
S31510041D0021000368DB689847070003D500F032F911
S31510041D10794201603800F2BD2824002000240020F6
S31510041D2010B5032803DA00F025F91D2112E01B4B28
S31510041D30800018180C380068002803D100F01AF92E
S31510041D40092107E003681B699847040005D500F0CC
S31510041D5011F9614201600020C04310BD1CB5010099
S31510041D60684600F00FF900F02FF9040003D100F0D3
S31510041D7001F913210CE0684600F024F90100200053
S31510041D80226812699047040006D500F0F3F8614200
S31510041D9001600020C04316BD002016BD1C23002080
S31510041DA0002801D000F040F9FEE780B50023022296
S31510041DB0694600F0B3F901BD11B583B00C0001A852
S31510041DC03A210170042203A9401CFFF7F5FC2100F7
S31510041DD001A800F0FBF904000BD003980168C96947
S31510041DE08847002805D0002302226946200000F007
S31510041DF095F9200004B010BD7047704770477047BE
S31510041E007047FEE770B504000D00160000F0F4F9F3
S31510041E1033002A00210000BF02A000F019FA00F0D6
S31510041E2003F970BD6D6265642061737365727461C4
S31510041E3074696F6E206661696C65643A2025732C2B
S31510041E402066696C653A2025732C206C696E6520B2
S31510041E502564200A0000000001E0401C491C0A7891
S31510041E600378934203D1002BF7D10020704702D296
S31510041E700020C043704701207047FEE7F4B586B0D2
S31510041E8007000C000121092000F014FA200000F0CC
S31510041E901DFA009001246D462C710026AE716E71E8
S31510041EA0684600F019FA69461820085600F00EFA2A
S31510041EB000902C71684600F00FFAE120400202905F
S31510041EC0032002A908714871CE804E7208728C7272
S31510041ED002A800F073FA2448386002A8B8600020FB
S31510041EE000F02CFB012000F05DFA2048046007B0D6
S31510041EF0F0BD10B50C00202000F003FB0128FAD029
S31510041F00A0B200F0F9FA10BD806801607047184855
S31510041F1001604260704738B50D001400684604210C
S31510041F20017003214170847000F02CFB002D02D146
S31510041F30E1B2102002E0E1B28020400100F0D2FAB2
S31510041F4031BD10B580246401200000F0EBFA00289E
S31510041F5007D0200000F0EFFA054A012150681268F4
S31510041F60904710BD000000000000304028240020D7
S31510041F701824002080B5024800F040FB02BD000082
S31510041F80A001002010B50400080000212160616042
S31510041F9002782F2A14D14278002A11D0421C01E06B
S31510041FA0491C521C2260226813782F2B02D1521C12
S31510041FB0226001E0002BF3D1401C00F07EFB606030
S31510041FC0200010BD0068704710B504006068002832
S31510041FD008D000F09FFB012804D16068002802D0C5
S31510041FE0001F10BD002010BD4068002800D17047A6
S31510041FF080B500F08FFB401E8041C00F02BD10B5A6
S3151004200004006068002808D000F084FB002804D17E
S315100420106068002802D0001F10BD002010BD406863
S31510042020002800D0012070471CB500F0E5F8062101
S31510042030684600F0A2FBC82464000121684600F03B
S31510042040C6FB962000F0E6FB0021684600F0BFFBB5
S31510042050962000F0DFFB0121684600F0B8FB9620BD
S3151004206000F0D8FB0021684600F0B1FB962000F082
S31510042070D1FB0121684600F0AAFB962000F0CAFBAA
S315100420800021684600F0A3FB962000F0C3FB012153
S31510042090684600F09CFB962000F0BCFB00216846C5
S315100420A000F095FB962000F0B5FB0121684600F080
S315100420B08EFB200000F0AEFB0021684600F087FB83
S315100420C0200000F0A7FB0121684600F080FB2000E9
S315100420D000F0A0FB0021684600F079FB200000F018
S315100420E099FB0121684600F072FB200000F092FB78
S315100420F00021684600F06BFB200000F08BFB0121E9
S31510042100684600F064FB200000F084FB002168465A
S3151004211000F05DFB200000F07DFB8EE7F8B51C0097
S315100421200D00002A0ED10026FFF707FC0700388899
S31510042130C0218901084220D18020000684420BD395
S31510042140C44313E0012A02D18026F600ECE7022AE2
S3151004215016D180263601E7E7002C07D1002D01D1D0
S31510042160840D05E03D003D350124060D002D0DD1ED
S315100421702000FEF799FE050005D13800FFF7F3FBA2
S315100421800020C043F2BD300040260643387840068E
S3151004219006D57868FFF704F838880A49014039806B
S315100421A03888094901400E433E807D602819B8607D
S315100421B0FD603D61BD627D61FD623800FFF7D3FBB2
S315100421C00020F2BDBFFF0000FFF3000038B5040085
S315100421D00D00FFF724FB00F031FB002100910023D2
S315100421E0DB4302002900200000F09CFB0400FFF7EB
S315100421F025FB200032BDFEE738B5EFF31080C50786
S31510042200ED0F72B60E4C6068002800D12570606818
S315100422100021C943884204D143220A490A48FFF7D8
S31510042220F1FD6068002806D0002D04D14722054927
S315100422300648FFF7E7FD6068401C606031BD00BFCB
S3151004224010240020F0530410C853041048540410EA
S315100422500EB400B501A900F003F8009804B00047C5
S3151004226070B5A0B004000D00FFF7C6FF2B002200C6
S315100422708021684600F0ECFB0400012C11DB0B48AE
S315100422800068002804D10B2208210948FFF7F6FD3F
S315100422906D46074E29783000FFF72BFE6D1C641E21
S315100422A0F8D100F0F3FB20B070BD00002824002004
S315100422B000240020044A0129116802D10843106041
S315100422C0704781431160704720009040010001203F
S315100422D00907090F88407047B0B4020010792B4BD8
S315100422E0010004D1186811688843186007E00628AD
S315100422F005D1002010711868116801431960002572
S3151004230000241068E040C0071BD5082C08DA996A27
S315100423100F20A84081431079A8400843986210E022
S315100423202000083808280CD229002039D86A0F272B
S315100423308F40B8431779BC460F006146B940014334
S31510042340D962641C2D1D1A2CDBDB10685179012906
S31510042350996802D10843986001E081439960106836
S3151004236091790129596802D10843586001E08143E3
S315100423705960B0BC70478021C9050BE0044A012995
S3151004238001D110607047506070470000040000408F
S315100423903C00004009680840401E8041C043C00FFD
S315100423A07047FEE76A490028086803D001220243F1
S315100423B00A607047012290430860704770B50400A4
S315100423C064482168090100F09AFBC20962490A812E
S315100423D01204520A801A401C400882B2402A02DBB8
S315100423E03F388006800E087360209F220B7C1340B2
S315100423F025796D0105401D430D740B781A406379D8
S315100424005B011840104308700820F7220B7C134018
S31510042410A579ED0008262E401E430E740B781A403B
S31510042420A379DB00184010430870E279100007D135
S31510042430FD200A7C02400A740A78104008701DE0D8
S315100424400220022A0A7C03460BD113430B74FB2287
S315100424500B7C13400B740B781843087008780240F1
S315100424600BE013430B7404220B7C04251D430D74DB
S315100424700B7818430870087802430A7001204A69D9
S31510042480364B1340227A024052021A434A614A6971
S31510042490334B1340227A5208024012021A434A61FD
S315100424A04A69304B1340627A024092031A434A61D6
S315100424B04A692D4B1340627A52081040C0031843E0
S315100424C048611020EF220B7C1340A57A2D0105409C
S315100424D01D430D740B781A40A37A1B011840104340
S315100424E0087070BD214A0029118802D00843108053
S315100424F07047814311807047C005C00D1C49088080
S3151004250070471C49002806D509680840401E8041BA
S31510042510C043C00F7047898A0840411E8941C94388
S31510042520C80F70470100144800880140481E8041B6
S31510042530C043C00F704711490880704710490A7884
S31510042540C7231340C000382202401A430A7070474A
S31510042550300030400000127A1C003040FFFDFFFFAF
S31510042560FFFEFFFFFFBFFFFFFF7FFFFF3800304076
S3151004257000003040040030403C00304044003040FD
S315100425803400304030B401788278002A23D044785D
S3151004259049B2CA0018231340FF259D40EA43A407F5
S315100425A0240E9C40002901D4104B03E0104B09075C
S315100425B0090F08398908890059180B681A401443F9
S315100425C00C6000780121C206D20E9140094A4009D6
S315100425D08000115007E00120CA06D20E9040064A28
S315100425E049098900505030BC7047000000E400E0EF
S315100425F01CED00E000E100E080E100E07047FEE73A
S3151004260080B500F005F802BD80B500F034F802BDBF
S31510042610F8B505000F003B48286000266E60AF60D1
S315100426202A73394C6068002802D120000830606093
S31510042630606821000831884204D05D223349344849
S31510042640FFF7E0FB002F03D020686860256000E0E8
S315100426506E606068002802D12000083060606068EF
S3151004266021000831884204D05D2228492848FFF702
S31510042670C9FB2800F2BD38B5040022482060224D5B
S31510042680281D00F093FAA06800280BD02868A042F1
S3151004269003D16068286005E008004168A142FBD1B7
S315100426A061684160281D00F081FA207B002802D160
S315100426B0201FFFF789F9200032BDF1B50E00124D27
S315100426C0281D00F073FA2C6800E06468002C13D0FF
S315100426D0A768002FF9D032000099380000F07CFA70
S315100426E00028F2D1380000F08DFAB042EDD1281D41
S315100426F000F05CFA2000F2BD281D00F057FA002005
S31510042700F2BD0000D858041064230020705604103B
S31510042710A8580410007B704770B51CE0F8B5050086
S315100427200C0017001E0000F05AF80020C043844223
S315100427300BD03100280000F04AF80121280000F0DF
S3151004274032F83900280000F01FF8F1BD80B50022D8
S31510042750FFF7E2FF01BD04000D00160000F03FF87C
S315100427600020C043854207D00021200000F01BF84A
S315100427703100200000F008F870BD80B50023002257
S31510042780FFF7CCFF01BDFEE738B50400207905003C
S315100427904A1E9241D243D20FA271062802D10120B9
S315100427A0A07160710EE038B50400002904D0062526
S315100427B006200121012202E0002500200022A17139
S315100427C0627120712000FFF787FD257131BD80B538
S315100427D00068002900D00121FFF7D0FD01BD38B5EE
S315100427E004000D0001210120FFF764FD2800FFF706
S315100427F06DFD2060062525710120A0716071E1E749
S3151004280080B50068FFF7B7FD401E8041C043C00F76
S3151004281002BD000070B50400FA208000444300E0B5
S31510042820040000F0F7F9050000F07CFB0600280010
S3151004283000F078FB801BA042F9D370BD38B5002098
S315100428400024364D29000A68002A0AD14020FEF7D2
S315100428502BFB002818D0A1006850802101808470B9
S3151004286032BD1288002A04D1A00028582C490180B0
S3151004287032BD641C4A68002AE8D01288002AF3D0B4
S31510042880641C0831082CDED332BD10B50021027841
S31510042890120626D50023214A1468844202D19B00CD
S315100428A0D1501BE0012354688442F8D00223946863
S315100428B08442F4D00323D4688442F0D004231469E8
S315100428C08442ECD0052354698442E8D006239469E3
S315100428D08442E4D00723D4698442E0D0FEF760FC36
S315100428E010BD0180C943C17001003D314160010032
S315100428F03D31C16001003D31016101003D3181620C
S3151004290001003D31416101003D31C16201003D319B
S31510042910816101002431C16110BD000080010020D5
S315100429207FFF0000F1B582B00D0014001E00002CCC
S3151004293067D0277880200740A0780090200000BF39
S3151004294033A14022FEF74CFF0098A07020003D30C2
S31510042950606020003D30E06020003D3020612000A2
S315100429603D30A06220003D30606120003D30E062C1
S3151004297020003D30A06120002430E06128787228C0
S3151004298001D1012108E0772801D11A2104E0612838
S3151004299001D1162100E00021394321800320014290
S315100429A006D12BE02188202211420ED10A4322801F
S315100429B06D1C29786229F5D02B2906D1218803228A
S315100429C00A40032A01D00322F0E70298002813D004
S315100429D00898552801D1012202E00022002803D0CC
S315100429E020884021014300E02188029800F0A6FACD
S315100429F0E070002808D501E0002E04D5200000F070
S31510042A00CDFA002001E0E670200003B0F0BD00000E
S31510042A10000000FF0000000000000000000000009D
S31510042A20000000000000000000000000000000008C
S31510042A30000000000000000000000000000000007C
S31510042A40000000000000000000000000000000006C
S31510042A5018B583B000240294002902D1009401947D
S31510042A6002E00090491E019103AB6946064878447A
S31510042A70163000F0D3FA0099002900D00C70002803
S31510042A8000D4029804B010BDBD2D000010B50C4C36
S31510042A906068002812D0EFF31080C00704D45822BF
S31510042AA008490948FFF7AEF96068401E606060681F
S31510042AB0002803D12078002800D162B610BD00BFCB
S31510042AC010240020F053041048540410F44600282F
S31510042AD004D4494200F013F84042604740420029AA
S31510042AE005D45FD000F00BF8404249426047494292
S31510042AF000F005F84942604703460B43E6D400222A
S31510042B00030A8B420BD203098B4219D243088B4218
S31510042B102ED2411A00D20146524110467047FF2266
S31510042B2009023FD012068B4205D3121209028B42B8
S31510042B3001D31212090203098B4219D300E0090AC0
S31510042B40C3098B4201D3CB01C01A524183098B426C
S31510042B5001D38B01C01A524143098B4201D34B0155
S31510042B60C01A524103098B4201D30B01C01A5241B8
S31510042B70C3088B4201D3CB00C01A524183088B423F
S31510042B8001D38B00C01A524143088B4201D34B0028
S31510042B90C01A5241884200D3401A5241CFD201463C
S31510042BA01046704708B501F0A9FA08BD10B504001F
S31510042BB02068002801D1201D20602068211D88422C
S31510042BC004D05D2202490348FFF71CF9206810BDA2
S31510042BD070560410A858041010B402E0401C491C86
S31510042BE0521E002A0BD00B7804789C4205D002D2D0
S31510042BF00020C04304E0012002E0002CEED10020A6
S31510042C0010BC7047010000E0491C0A78002AFBD169
S31510042C10081A704700A07047285804107023002023
S31510042C20F1B584B040683821405C002865D1049819
S31510042C30006800688047049800688069804704002B
S31510042C4020680090002807D1292200BF2CA199A042
S31510042C50FFF7D8F89848009060680700001F1D28F1
S31510042C6005D32F2226A193A0FFF7CCF820270720FF
S31510042C70391F884002900498406800210160416021
S31510042C8004980068406880470499496801910E4683
S31510042C900836B061002400253000203030C000987A
S31510042CA03060012000213A0001F02AFA401E7060BB
S31510042CB00298B060029800217F4A002301F032FA8C
S31510042CC002000B0000980021801859410022401E72
S31510042CD09141009A002301F03EFA3200103203C2E9
S31510042CE03000283030C001200199382288540498C5
S31510042CF000F030F8049800F0E1F805B0F0BD0000DB
S31510042D00433A5C55736572735C4769616E6C75639F
S31510042D10615C6D626564434C496465765C6D62659D
S31510042D20642D6F732D6769616E2D626C7565312D17
S31510042D306230355C6D6265642D6F735C68616C5CC2
S31510042D406D6265645F7469636B65725F6170692E29
S31510042D5063000000F0B583B005006C68286840680D
S31510042D60804702006868006A82426BD0206A111A92
S31510042D70E068084000212262A26802924E4B9A42F1
S31510042D8002D10600002755E01A46002301F0CAF9BD
S31510042D90029A80231B029A4219D1C60B4A0416437F
S31510042DA0CF0B220028320CCA80185941FB03750C2C
S31510042DB02B43F203801A99412200283203C280223F
S31510042DC012020023994228D8904233D325E06A464A
S31510042DD003C2684603C8029A002301F0BCF9060030
S31510042DE00F00200028300CC8684603C880185941C3
S31510042DF00090019130003900029A002301F092F9F3
S31510042E00009A019B121A8B41200028300CC002989C
S31510042E1000218B4201D882420CD30020761C4741F4
S31510042E202000283003C8029A0023801A99412200F0
S31510042E30283203C22000303003C836184F41200010
S31510042E403030C0C003B0F0BD39B581B0446820003D
S31510042E500830283003C8121A8B411000190025694E
S31510042E60220018320CCA8B4219D301D8824216D3C7
S31510042E70A268114B9A420FD080231B029A4204D1A6
S31510042E80C903420C1143C00302E0002301F04AF9BE
S31510042E90094A002301F05FF9854200D90500200094
S31510042EA0083080694119200008304068084003B092
S31510042EB030BD00003000000040420F0070B5040021
S31510042EC06568FFF747FF60684168002921D00CC97F
S31510042ED0303003C8994202D317D8904215D2200035
S31510042EE0FFF7B2FF06002168096988472068406821
S31510042EF08047296AB14204D2B04206D2884210D21F
S31510042F0003E088420DD2B0420BD320684069804753
S31510042F1070BD286A29694118E8680840216809695A
S31510042F20884770BD10B5FFE70400FFF779FE20004F
S31510042F30FFF710FF6068303003C810BD10B500BF2E
S31510042F4012A28B071B0FD25808234C0700D51A431D
S31510042F500B4003D01300802292001A43CB0603D5EC
S31510042F601300802252001A434B0603D51300802205
S31510042F70D2001A43890602D58021090201E0802174
S31510042F80C9011143FEF75EFD40B210BD00000000FA
S31510042F9000000000010000000200000070B50400EB
S31510042FA02078800703D003202056002809D5FEF781
S31510042FB036FC2000FFF769FCFEF740FC0026F643BA
S31510042FC029E0200001F036F90600FEF728FC2078E7
S31510042FD0400602D56068FEF7E3F800256560032015
S31510042FE02056022805D9FEF739FE002801D00026FE
S31510042FF0F643A06B002809D0FEF7B0FE002801D0D6
S315100430000026F643A06BFEF7CBF8A5632000FFF766
S315100430103CFCFEF713FC300070BDFEE7F1B5A4B01E
S315100430200E0014001D004A487844FF30253003C8AA
S3151004303022AA03C2049600200D9001E000982418D9
S3151004304000206946C88022AB0022D243210001A881
S31510043050801C01F00FF90090012805DA2078411E32
S315100430608941C943C90F00916846C0882528009F25
S3151004307000D17F1E012F0EDB260031780498249A86
S3151004308090470490002800D101E10D98401C0D9042
S31510043090761C7F1EF1D16846C088252807D10020EA
S315100430A00790089009900A900B900C9008E06846D7
S315100430B0C0880028C2D10D98EBE001000120084316
S315100430C0641C21782029F8D023290ED02B2904D06A
S315100430D02D2907D030290BD00DE00100022008431A
S315100430E080B2EDE701000420F9E701000820F6E7B5
S315100430F001001020F3E72A290FD1296829600A68EC
S31510043100091D29600F92002A05D551420F9101001D
S315100431100420084380B2641C12E000210F910AE0D7
S315100431200F9A7C4B9A4205D093009A185200511864
S3151004313030390F91641C21780A00303A0A2AEFD3E9
S3151004314021782E2906D00021C9430E9121E000BF13
S3151004315028270000641C21782A2907D129682960A8
S315100431600A68091D29600E92641C12E000210E9152
S315100431700AE00E9A674B9A4205D093009A185200A9
S31510043180511830390E91641C21780A00303A0A2AF3
S31510043190EFD302A9088726783100044878440C3006
S315100431A001F076F8002803D0641C02E0D42600004F
S315100431B0002602A83A214654405C682804D1217896
S315100431C0682901D1622005E06C2807D120786C2883
S315100431D004D1712002A93A228854641C12A80690BC
S315100431E02678641C3000253824D02038022800D8CC
S315100431F0D9E0133800D1FCE00B3800D168E1401E49
S3151004320000D140E1401E022800D8CCE0001F00D1B6
S3151004321039E1401F00D197E0401E00D1E9E0401E7D
S3151004322039D0C01E0BD0801E00D1E2E0C01E00D1E2
S31510043230DFE070E1252012A90870012075E102A8CB
S315100432403A21405C6C282868286016D00668001D50
S31510043250286005960E9F002F03D53000FFF7D2FC89
S3151004326009E03A000021300001F01CF8002801D0D2
S31510043270801B00E03800089058E10268001D2860A1
S3151004328002A9249800F032FA002800D44EE1002056
S31510043290C04325B0F0BD286828600268001D286068
S315100432A00020C0430021104002AA03C212A80590B0
S315100432B0069B3C2602A803C8002904D1002802D183
S315100432C00E9A002A14D0761E00960207120F303278
S315100432D0D2B23A2A00DB27329A5500090A0710435C
S315100432E0090901D1002803D0059A9F19BA42EAD3D5
S315100432F03C20801B0890991905910E9988420DDA85
S31510043300081A0A9002A8008F0349014002A80187EF
S315100433100CE100BFFFFFFF7FEFFF0000002900D480
S3151004332004E102A93822895C14220A40102A00D02A
S31510043330FCE00F99079A891A0A9A891A0E1A012E0D
S3151004334000DAF3E00A96F1E002A83A21405C62281A
S3151004335019D0682806D06A280CD06C281BD071287E
S3151004336008D018E0286828600168001D28600D98A8
S315100433700880DBE0286828600268001D28600D9824
S31510043380C11703C2D2E0286828600168001D2860AE
S315100433900D980870CAE0286828600168001D286026
S315100433A00D980860C2E02A68D21D072082432A605D
S315100433B003CA2A6002AA03C2002902D507982D213E
S315100433C00AE002A8008F810702D507982B2103E093
S315100433D0C00705D50798202112AA1154401C07903E
S315100433E012A8079940180590310002A800F0C6FBF0
S315100433F09CE002A83A21405C6C280BD0712801D0BD
S315100434006A2807D12A68D21D072082432A6003CA74
S315100434102A6005E0296829600868091D29600021C9
S3151004342002AA03C202A83A21405C682803D102A862
S3151004343003C880B20BE0622803D102A803C8C0B245
S3151004344005E0742801D07A2804D102A803C8002103
S3151004345002AA03C202A83821405C00072FD502A88D
S3151004346003C8002901D1002829D020203043782808
S3151004347025D10798302112AA1154401C411C0791DA
S3151004348012A90E541BE0290002A83A22805C00F00F
S31510043490F8F802AA03C202A8002902DA07982D2115
S315100434A009E0008F810702D507982B2103E0C00796
S315100434B005D50798202112AA1154401C079012A86A
S315100434C0079940180590310002A800F0A1FA2DE0E2
S315100434D002A83A21405C6C2809D00120079028687C
S315100434E028600168001D286012A801701EE0286873
S315100434F028600168001D286068460180002069461E
S315100435004880C0430E906A4602A9249800F0EEF84B
S3151004351000280BD5BBE6252012A9087001200790B8
S31510043520300003D012A84670022007900F9807990E
S31510043530401A0A99401A0899401A0B99401A09997F
S31510043540401A0C99401A009002A83821405C400792
S3151004355011D4202069460871009801280BDB009EBF
S31510043560012301AA02A9249800F0AFFD002800D077
S315100435708DE6761EF4D1079F12AE002F0DD031784A
S315100435800498249A90470490002800D17FE60D9859
S31510043590401C0D90761C7F1EF1D1302069460871AF
S315100435A00A9E012E0ADB012301AA02A9249800F01F
S315100435B08CFD002800D06AE6761EF4D1059E089F7D
S315100435C0002F0DD031780498249A9047049000283F
S315100435D000D15CE60D98401C0D90761C7F1EF1D12F
S315100435E03020694608710B9E012E0ADB012301AABD
S315100435F002A9249800F069FD002800D047E6761E3B
S31510043600F4D1059808994618099F002F0DD03178E2
S315100436100498249A90470490002800D137E60D9810
S31510043620401C0D90761C7F1EF1D13020694608711E
S315100436300C9E012E0ADB012301AA02A9249800F08C
S3151004364044FD002800D022E6761EF4D102A83821C3
S31510043650405C400700D4F3E42020694608710098C2
S31510043660012800DAECE4009E012301AA02A9249899
S3151004367000F02BFD002800D009E6761E00D1DFE409
S31510043680F2E70A00622822D0682819D06A2808D0DE
S315100436906C2823D0712804D074281FD07A2808D017
S315100436A01CE01368DB1D07208343136003CB1360F0
S315100436B07047116811600868091D11600021704770
S315100436C0116811600868091D116000B20BE01168D9
S315100436D011600868091D116040B204E01168116098
S315100436E00868091D1160C11770470000F4B59AB037
S315100436F007000C00206B002800D50E48039000F03C
S31510043700DDFD616B0818069009487844223003C819
S3151004371007AA03C23820205C400702D40698412821
S315100437200AD209A80290402006900020059012E0C3
S3151004373058210000FFFFFF7FFDF7B6FB029000281B
S31510043740F3D10020C04361E11A98801C1A900398A3
S315100437500199401A03900398012800DAD0E007AAC9
S315100437601A98018800A8401C00F0ADFD01900028AD
S3151004377000D5E2E01A980088002804D10198401E6A
S31510043780019000D5D9E003980199884200DAB7E090
S3151004379060690699019A8218914200D39FE000212C
S315100437A061634142206A081AA169401A616A401A83
S315100437B0E169401AA16A401A04903820205C400737
S315100437C011D4202069460870049801280BDB049D47
S315100437D001236A462100380000F077FC002800D047
S315100437E0ABE06D1EF4D16669029D002E0CD02978CB
S315100437F0A068B847A060002800D19EE0E06A401C8B
S31510043800E0626D1C761EF2D1302069460870256A76
S31510043810012D0ADB01236A462100380000F055FC0D
S31510043820002800D089E06D1EF4D1E568A669002E43
S315100438300BD02978A068B847A06000287DD0E06A2C
S31510043840401CE0626D1C761EF3D130206946087068
S31510043850656A012D09DB01236A462100380000F050
S3151004386034FC002869D16D1EF5D1E068A1694518AC
S31510043870E669002E0BD02978A068B847A060002806
S315100438805BD0E06A401CE0626D1C761EF3D13020DA
S3151004389069460870A56A012D09DB01236A462100D1
S315100438A0380000F012FC002847D16D1EF5D13820DF
S315100438B0205C400710D5202069460870049801281A
S315100438C00ADB049D01236A462100380000F0FDFB43
S315100438D0002832D16D1EF5D1002005906061019A41
S315100438E000A9491C02986369C018FDF765FF606951
S315100438F00199401860611A980088002800D023E7BF
S31510043900059800287BD1606B6169401A216A401AB8
S31510043910A169401A616A401AE169401AA16A461AF5
S315100439203820205C400711D4012E0FDB35002021EE
S31510043930A068B847A060002803D10020C0430590B2
S315100439405DE0E06A401CE0626D1EF0D16369029A84
S315100439502100380000F0B9FB0028EED1256A012DAC
S315100439600ADB3021A068B847A0600028E5D0E06AD9
S31510043970401CE0626D1EF4D1A369E2682100380090
S3151004398000F0A3FB0028D8D1656A012D0ADB30218B
S31510043990A068B847A0600028CFD0E06A401CE06257
S315100439A06D1EF4D1E369E068A1694218210038005C
S315100439B000F08BFB0028C0D1A56A012D0ADB30214B
S315100439C0A068B847A0600028B7D0E06A401CE0623F
S315100439D06D1EF4D13820205C40070DD5012E0BDB6B
S315100439E035002021A068B847A0600028A5D0E06A59
S315100439F0401CE0626D1EF4D1002060616063029881
S31510043A0009A9884201D0FDF7CBFB05981BB0F0BD80
S31510043A10F3B583B0006900906846027C6F2A01D121
S31510043A20082406E020211143782901D00A2400E055
S31510043A3010243C25039803C806000F00642A01D0FD
S31510043A40692A07D1002905DA00200021801BB94113
S31510043A5006000F00002F10D1002E0ED10398006B14
S31510043A6000280AD1082C3AD103983821405C000763
S31510043A7035D53B253020009930E06D1E0195300078
S31510043A8039002200E31700F066FB3032D2B23A2A2C
S31510043A9003DB6846007C51381218009842553000F2
S31510043AA039002200E31700F056FB06000F0001D17F
S31510043AB0002E05D00398C068009949198842DCD3B2
S31510043AC0082C0CD103983821405C000707D50098C0
S31510043AD0405D302803D06D1E3020009948553C2097
S31510043AE0401B0399886100994919039AD160039977
S31510043AF0096B884209DA081A039908620398008F39
S31510043B00B14901400398018715E0002913D503999B
S31510043B103822895C14220A40102A0CD10399496B65
S31510043B20039A5269891A039A126A891A0D1A012D6F
S31510043B3001DB0398056205B0F0BDF4B504000D0071
S31510043B400026A24F14E0C00707D532003B00200020
S31510043B50290000F0C4FB04000D00009840100090EA
S31510043B603000390032003B0000F0B9FB06000F00AC
S31510043B7000980028E7D120002900F4BDF3B591B0D0
S31510043B8006AA03C802AB03C31198006B002801D51B
S31510043B90062007E008D112A80078202101436729DE
S31510043BA002D1012011990863119840684100490D0A
S31510043BB0874B994223D100030FD11198006800282E
S31510043BC00BD103201199886112A8007861381A283C
S31510043BD048D300BF86A000900AE00320119988619B
S31510043BE012A8007861381A283AD300BF81A0009031
S31510043BF0032200991198C068FDF7DEFDE2E0012961
S31510043C002BDB744A024074481043119A506073486F
S31510043C10081A00B2724C444302A803C800220023B7
S31510043C2000F01FFC06D202A803C8802212065140D7
S31510043C3002AA03C220006B49FEF75EFF694688801C
S31510043C40019C24B20720001B009001280CDB0246BD
S31510043C5002A803C8FFF771FF11E000200023A6E0B5
S31510043C6065A0C4E765A0B6E7424200205E49FFF7A7
S31510043C7064FF02000B0002A803C800F00BFC02AAA2
S31510043C8003C212A80078202101430491662901D1A8
S31510043C900A3400E006241198006B001900901428C9
S31510043CA001DB1320009030206946087606A8441CD0
S31510043CB00098012839DB02A803C800F04DFC0590D2
S31510043CC006460834042530000A21FEF718FF0F00B3
S31510043CD030000A21FEF713FF06003037601E077006
S31510043CE030000A21FEF70BFF0F0030000A21FEF701
S31510043CF006FF0600A41E303727706D1EE3D1083464
S31510043D000098083800900128D2DB059800F03CFC96
S31510043D1002000B0002A803C800F0A3FC0022334BD8
S31510043D2000F0DDFA02AA03C2C5E706A8401C201A51
S31510043D3006A94A1C6B4605E0401E019909B2491EA4
S31510043D409980521C11783029F6D00499662903D12A
S31510043D50019909B2491C04E0652901D1012100E049
S31510043D600021119B1B6B5B181BB2984200DA0300EF
S31510043D701BB219001DD4814204DA505C352801DBCC
S31510043D80392000E03020541800E05B1E641E491EE2
S31510043D9025788542F9D0392802D1505C401C5054FC
S31510043DA0002906D5521E5B1C019800B2401C6946B8
S31510043DB08880019800B200901BB212A8017811985D
S31510043DC000F01EF813B0F0BDEFFF00000000244011
S31510043DD0FF070000FFFF0F800000E03FFE03000016
S31510043DE097750000A08601000000F03F84D7974124
S31510043DF0494E46004E414E006E616E00696E660075
S31510043E00F3B587B015001C0000F0BBFC0090406AA7
S31510043E100078694608710798076B012C01DA0124AA
S31510043E20A9A508A80178202008430E9E662801D16A
S31510043E30761C17E0672800D0B2E00321C9438E42EE
S31510043E4000DA99E0BE4200DB96E0761C079838212A
S31510043E50405C000702D4BC4200DA270036B2BF1B0E
S31510043E6000D50027079880690799C9680918009131
S31510043E7036B2012E2EDA401C3021009A1170012F11
S31510043E8004DA07993822895C090705D56946097940
S31510043E90079AD2681154401C079988617042874268
S31510043EA000DA7E4236B2704207994862BF19A742B9
S31510043EB000DA3C0024B20798C4612200290007984E
S31510043EC0C068079B9B69C018FDF776FC381B0799D9
S31510043ED08862DAE0B44220DA220029000098FDF75D
S31510043EE06BFC079989690919079A9161301B079A1E
S31510043EF05062012F04DA07983822805C000709D52E
S31510043F0068460079079AD26850540798C069401CCD
S31510043F100799C86107988762B7E0320029000098AC
S31510043F20FDF74AFC079880698019A41B012F04DA4F
S31510043F3007993822895C090705D569460979079ACC
S31510043F40D2681154401C0799886124B2A74200DA3A
S31510043F503C0024B22200A9190798C068079B9B69E4
S31510043F60C018FDF729FC079880690019079988611C
S31510043F70381B0799486288E0BC4205DA079938224B
S31510043F80895C090700D427007F1E00D5002708A8DE
S31510043F900078672801D1652000E0452008A908703B
S31510043FA007988069411C079A91612978079AD26803
S31510043FB01154681C0090012F04DA07983821405CCC
S31510043FC0000720D507988169481C079A90616A46AC
S31510043FD01279079BDB685A54012F14DB641E24B232
S31510043FE0A74200DA3C0024B222000099079BDB6842
S31510043FF01818FDF7E1FB079880690019079988617D
S31510044000381B079948620798C06807998969411847
S3151004401008A800780870300003D42B2048708D1C33
S3151004402003E02D224A708D1C4642002404AF08E09A
S315100440300A2202A800F0C0FB03983870029E641C82
S315100440407F1C31B20129F3DA022C08DA08A80078A9
S3151004405020210143652902D1302028706D1C002CC3
S3151004406009D1302028706D1C07E0641E04A8005D79
S31510044070303028706D1C012CF7DA0798C068079940
S3151004408089694018281A0799C86107983821405C2D
S3151004409014210140102914D1079840690799896998
S315100440A040180799496A40180799C9694018079929
S315100440B0896A40180799496B884202DA081A0799DF
S315100440C0086209B0F0BD00003000F1B50E0014000E
S315100440D00027002B0FD01D002178B068009A904756
S315100440E0B060002806D0F06A401CF062641C6D1E95
S315100440F001D0F1E7FF433800F2BDFEE77047FEE753
S31510044100D2B2203A03D301009140002070475242A4
S31510044110D0415242203291404140D04090404140DB
S315100441207047FEE730B4434351435D18010C0C004D
S31510044130130C5C432D1980B2434392B251430024AD
S31510044140C918644124040B04090C09195043C018F6
S31510044150694130BC7047124224D0994228D970B5AF
S3151004416000251B4202D00C00002109E00024012680
S3151004417049186441944200D3A41A7641F8D3310005
S31510044180012601E0764109D2001864416D41A41A52
S315100441909D41F7D2A4185D41B619F5D3300022001B
S315100441A02B0070BD1B42D8D108B500F015FB08BD15
S315100441B001D19042D3D202000B0000210020704797
S315100441C070B5FDF7BAFB0400208880042DD5656808
S315100441D00026F64308E04A1B2900FDF763FDB042AA
S315100441E00DD000280BD02D1803202056E1688D42DF
S315100441F0F1D300220021FDF755FDB0420DD16068C0
S31510044200E0606061E062208880218900014321809A
S315100442102000FDF7A8FB300070BD6568E560656198
S31510044220E56220881149014021802000FDF79BFB9F
S31510044230002070BDF8B5002815D1FDF7F0FA00245A
S315100442400B4D08260027FF432868002804D0FFF7E3
S31510044250B7FF002800D53C002D1D761EF4D1FDF7BE
S31510044260EDFA2000F2BDFFF7ABFFF2BDFFDF000051
S3151004427080010020F8B504000F0015001E0000F0A0
S31510044280ADFA33002A003900200000F0BBFAF2BD63
S31510044290C9B200E0401C02788A4202D0002AF9D141
S315100442A000207047C9B201E0401C521E002A03D0F8
S315100442B003788B42F8D170470020704780B500F020
S315100442C08DFA012002BD70B504000D00160000F031
S315100442D085FA32002900200000F08AFA70BDF0B584
S315100442E00E005E400125ED072E40B446AE0ADF18D7
S315100442F04C18F44208D2F7420ED2640D01D07F0D49
S3151004430012D100206146F0BD05D1F74201D87F0DC8
S3151004431005D10020C143F0BDFBD1640DF9D00020B6
S31510044320C143490549088FE0E419C902DB02294350
S315100443302B43DB0A460DC00231438E4630B487B296
S3151004434095B27D432E0CADB2140C7C43A419260CE5
S31510044350240425439CB27C43A419190C7943270CD5
S31510044360C919A4B20F043C43090C000C97B2474375
S315100443702E0CBE193543ADB2170C4743360CBF1974
S31510044380A6B2BF193E043543240C3E0C36199FB20F
S315100443904743BF19BCB23E0C89191F0C47437F18FB
S315100443A03E043443390C704680B297B247432E0C00
S315100443B0BE193543ADB2170C4743360CBF19A6B216
S315100443C0BF193E043543240C3E0C36199FB247439D
S315100443D0BF19BCB23E0C89191F0C47437F183E0403
S315100443E03443390C77463F0C90B278432E0C80191F
S315100443F00604ADB22E43050CA0B22D18120C7A4346
S315100444005019020C80B2240CA4189AB27A431219C9
S3151004441014042043120C89181B0C7B43C91830BC96
S31510044420EF0A394203D1B61940414941641E6F124D
S31510044430BF0DE41B0BDBFF19BC4211DA2405002760
S315100444404208AE417841614166463143F0BD641C71
S3151004445005D1401C6141CF0201D34908F4E750E766
S315100444605DE730B4012464054D00EC420BD85D00C1
S31510044470EC4208D80C001C4364000443144304D2D1
S31510044480994200D1904230BC7047FCD08B42FAD18D
S315100444908242F8E7F0B40E005E400125ED072E4087
S315100444A0B446AE0ADF184C18F4423BD2F74241D256
S315100444B0640D43D07F0D38D0E41BC902DB022943B7
S315100444C02B43CF0ADB0A0600B61A9F4104D2641E98
S315100444D0B6197F41B6185F416812800D241800186A
S315100444E0844222DAE80C0021B6197F41B61A9F419C
S315100444F002D2B6185F413F1C40414941F4D3241CF3
S3151004450021DD2405B6197F41B61A9F4105D33743D9
S31510044510C60737430026012F704161416646314371
S31510044520F0BC7047FCD1F74205D20020C1434905BF
S315100445304908F3E704D00020C143F1E77F0DFAD010
S3151004454000206146ECE72442FAD1401C61410F0376
S31510044550F6D30020E2E7FEE74A1812D2400DC9024C
S3151004456008430121C9070843520D40210901521A73
S31510044570521C06D452421F3201D4D0407047C01781
S31510044580704700207047FEE7010000BF4222120167
S31510044590D21E004207D002D4521E0018FCD5C10AFE
S315100445A040051205891870478B4200D1824205D9FD
S315100445B08446100062468C4619006346DF184C1870
S315100445C0640D7F0D3AD0661C760537D0E61B352E62
S315100445D034DCDB022B43DB0A0C0DC9022943C91256
S315100445E0202E0DDB1700203E06D01F00F741F340A6
S315100445F05F400026012A7741C01871410DD217E099
S315100446001700F741F2405740F3415A40B340F34084
S315100446105A400026801859410AD3A21C52050FD0BD
S31510044620C207012F724117004008CB0718434908E7
S31510044630641C24054208AF4170416141F0BC7047C7
S31510044640641C21050020F9E76B4010E06B40ABE7D2
S31510044650F742F3D1E943F1E72442EFD100200021D8
S31510044660ECE7F0B40125ED070F005F40EED40C0023
S31510044670871A9C4105D2C01BA141D21963416940D6
S315100446806B40AE0ADF184C18F442E1D2640D7F0D6C
S31510044690E2D0E61B362ED1DCDB022B43DB0AA44622
S315100446A00C0DC9022943C90A012E28DC04D1D607E8
S315100446B05208DF073A435B08EF0A76429041994164
S315100446C014D039423BD1B61940414941761C39427E
S315100446D004D1761C001849413942FAD0B9436746C9
S315100446E0B74208D9A41B24052143A7E70042EAD1FF
S315100446F03642E8D1A2E7E40AE10700209EE7202E1D
S315100447000BDD203E1F00F340F7415F40012A0022D3
S3151004471057417E42984191410BE01700F741F24010
S315100447205740F3415A40B340F3405A407E429041B9
S3151004473099410A0303D2641EB61940414941002720
S31510044740641E24054208AE4178416141F0BC7047AD
S3151004475080B51248FDF752FF11A1016041608160D6
S31510044760C1600161416181610EA242628162C162CE
S31510044770016341630CA282630DA2C26301644164A6
S3151004478001BD10B50548FDF739FF0400206800285F
S3151004479001D1FFF7DDFF200010BD00001802002034
S315100447A0000000002E00000066616C7365000000B6
S315100447B074727565000000007CB504000E001500C7
S315100447C030002900FEF798F900904543701B0190BC
S315100447D0684603C803C473BD7047FEE780B5034833
S315100447E0FDF70CFF806902BD00000000AC0100203B
S315100447F0002804D10EA003C803C20020704701701C
S3151004480001207047002904D10BA003C803C300205C
S315100448107047002A02D10120C0437047002801D0F6
S315100448200A7802800978481E8041C043C00F704739
S31510044830000000000000000000000000000000005E
S3151004484010B400210022002300241EC0103810BC0E
S31510044850704780B500F005F802BD80B500F09FF8EA
S3151004486002BDF2B584B0060017001C006348306020
S31510044870301D00210022002300252EC00223102201
S315100448805F493000143000F0C5F874630024350015
S3151004489014350021684600F0E5F86D4508D0280067
S315100448A000F0F8F8002D03D06946280000F0FBF854
S315100448B00399002902D0684689688847641C103514
S315100448C0022CE6D33A00694610200956301DFDF72E
S315100448D0D5FA716B301DFDF717FB32004949301DAF
S315100448E0FDF715FB300005B0F0BDF0B585B004003A
S315100448F00F001600216809688847FDF77DFC300112
S315100449002518286AF96800290AD0002801D100F070
S31510044910D6F839002800143000F0D3F8012213E039
S31510044920002801D000F0CCF80021684600F09AF86F
S3151004493001002800143000F0C4F80399002902D0AD
S3151004494068468968884700223100201DFDF7E3FA7E
S31510044950FEF79CF8200021684968884705B0F0BD29
S3151004496009014018016A002900D1704710B50400E6
S315100449701434002905D18422920023492348FDF7D3
S3151004498041FA2000E1680968884710BD10B50C008B
S31510044990001DFDF7AEFA200010BD7047704730B504
S315100449A085B00400154820606846002100220023C3
S315100449B000252EC069462000FFF797FF03990029AA
S315100449C002D0684689688847684600210022002379
S315100449D02EC0012269462000FFF787FF039900299C
S315100449E002D06846896888470223102208492000A5
S315100449F0143000F020F8200005B030BD68580410BB
S31510044A004148041061490410C45604101C5904107A
S31510044A10954A0410F8B504000D00170000942800F8
S31510044A2007D0002B05D01E002000A847E419761ED7
S31510044A30FAD10098F2BDF8B504000F005343E518F7
S31510044A405642AC4203D2AD192800B847F9E7083CE0
S31510044A502000F2BD80B503000800190000F04CF8E0
S31510044A6002BDFEE730B40A0006D10021002200235D
S31510044A7000241EC0103809E000220023002400255B
S31510044A803CC0103800D001600149C16030BC704789
S31510044A90F058041010B50400E168002901D08968A3
S31510044AA08847200010BD38B505000C00E268002ABE
S31510044AB001D052689047E068E860280032BD70471C
S31510044AC0704738B505000C00A54207D0FFF7E2FF82
S31510044AD0002D03D021002800FFF7E5FF280032BD82
S31510044AE038B505000C00A54205D028684019804742
S31510044AF02D1DA542F9D131BDF8B504000F001500DE
S31510044B00FCF792FE1C480168002900D11B491C4A77
S31510044B10914201D3002601E00E000C310160FCF72E
S31510044B2092FE002E01D10120F2BD37607460B5608B
S31510044B300020F2BD80B5002000F001F801BDF8B5E3
S31510044B400D4C2668350000D1F1BD0C4F0BE0050065
S31510044B5006000C3D6968080005D0002068602868C6
S31510044B60002806D0884720688642F0D1BD42F0D18D
S31510044B70F1BD8847F7E700002C240020A00200208E
S31510044B802C04002010B4C20018231340FF249C40A8
S31510044B90E2438907090E9940002801D45E4B03E0CD
S31510044BA05E4B0007000F0838800880001818036849
S31510044BB01A401143016010BC7047000030B587B02D
S31510044BC005000C00684600BF5CA11C22FCF708FE19
S31510044BD0002D2ED06846402181735B2101754C212E
S31510044BE0C17220210172B22141744D4A53684D4954
S31510044BF01D0C8D4205D11B0170251D400B232B4323
S31510044C00C3751268130C8B4209D14179CF230B401B
S31510044C10437141791201302313400B4343714248C7
S31510044C20802149026A4692B20A43026002680A4027
S31510044C30FCD13E4881890029FBD0012181811721AD
S31510044C40018000214160002C08D0374841681022A9
S31510044C504368134010240C40A342F9D007B030BD6A
S31510044C6080B508203249088003210120C043FFF78C
S31510044C7089FF03210020C043FFF784FF032100208E
S31510044C80FFF780FF03210120FFF77CFF0321042097
S31510044C90FFF778FF03210520FFF774FF0021062094
S31510044CA0FFF770FF03210720FFF76CFF03210D2088
S31510044CB0FFF768FF03210E20FFF764FF03210F207F
S31510044CC0FFF760FF03211120FFF75CFF0321122079
S31510044CD0FFF758FF03211320FFF754FF0321142075
S31510044CE0FFF750FF03211520FFF74CFF0321162071
S31510044CF0FFF748FF0F4801680902090AC022120685
S31510044D000A43026001210120FFF758FF06200A49D1
S31510044D10086062B601BD000000E400E01CED00E08E
S31510044D20E407001055AA00000C0000480C001048B7
S31510044D300400104014E400E020009040023F0002FA
S31510044D403E30023C20023B4C023A400239B2023455
S31510044D505B02350B0000000010B503E010B526E029
S31510044D600000000004000022201DFDF749FC18482D
S31510044D700100083121605430606014480100083184
S31510044D802160643060600020606112A1200000F090
S31510044D9075F86061002802D0FDF707F805E0FDF705
S31510044DA0E9F801682DA000F06DF8200010BD04008C
S31510044DB00648010008312160643060606069FEF7BE
S31510044DC0EDF8201DFDF720FC200010BDE85404105A
S31510044DD0BC550410772B000000207047F8B504006A
S31510044DE00F003D00A818009020002168C96C884760
S31510044DF0009885420CD00026F643297820002268B4
S31510044E00526C90476D1CB04202D000988542F4D182
S31510044E1020002168096D8847E81BF2BD0020704701
S31510044E20002070470CB470B504000D002168C96CDD
S31510044E30884704AE6069FFF7FDF9320029006069FE
S31510044E4000F034F8FFE7050020002168096D884753
S31510044E502800039970BC03B00847000053747265A8
S31510044E60616D206F626A206661696C7572652C20AB
S31510044E706572726E6F3D25640D0A000080B5FCF7ED
S31510044E809BFF02BD0EB400B507490A78002A07D164
S31510044E9001220A7001A9FDF7E3F90120FCF780FF4E
S31510044EA0009804B0004700BF3824002034B50D0024
S31510044EB0FCF743FD04006B462A002100054878449C
S31510044EC01230FEF7ABF805002000FCF74CFD280065
S31510044ED032BD00BFBD09000010B582B03F4C96200C
S31510044EE08001009000230B220821200000F082F894
S31510044EF03B4A3C49FFF7AEFD200054300021002206
S31510044F0006C0062120005430FDF737FC20005C3023
S31510044F100021002206C0072120005C30FDF72DFC7D
S31510044F20200064300021002206C00E2120006430C7
S31510044F30FDF723FC20006C300021002206C00D2151
S31510044F4020006C30FDF702FC13BD000010B584B0D0
S31510044F50224C012120005C30FDF739FC23A12000EE
S31510044F603830FFF75FFFFDF747F9002120006C305A
S31510044F70FDF70AFCFDF78AFD1B496846FFF772FD2B
S31510044F80012201002000FFF7B0FC0399002902D08A
S31510044F9068468968884720006C30FDF731FC002884
S31510044FA0F9D120005430FDF72BFC411E8941C90F5D
S31510044FB020005430FDF70BFC3220FDF72BFCEAE7FA
S31510044FC010B5064C20006430FDF71AFC411E8941C9
S31510044FD0C90F20006430FDF7FAFB10BD082200202B
S31510044FE030240020BD580410C14F041048656C6C61
S31510044FF06F0A0D0038B504001D00049BFFF729FC49
S31510045000290020003830FFF7A7FE054801000831B3
S31510045010216001008431E1632830A063200032BD91
S315100450205C540410383880B5FFF7B0FC02BD38382C
S31510045030704738387047FEE770B4028B2A4B13401A
S315100450400383028B294B13400383F822037D1340F9
S315100450500375C723047D1C4004750D78244C802DDC
S3151004506007D1058B2C400483048B80256D002543C2
S3151004507008E0068B3440AD07AD0F25430583048B3A
S315100450801C4D25400583CC780474048B8025254358
S3151004509005838C888480CC880481048B164D254026
S315100450A00583047D22404C786407640F1443047509
S315100450B0027D13408978C90038220A401A430275C2
S315100450C070BC70470021417081708180C18001706D
S315100450D0C17070470129018B02D180220A4301E075
S315100450E0054A0A4002837047EFFF0000DFFF000005
S315100450F0FCFF0000FFFE00007FFF00008181704767
S31510045100808970470901012A027F02D11143017770
S3151004511070478A43027770472022825C114320220B
S3151004512081547047007F0140481E8041C043C00F20
S315100451307047FEE7F8B505000E00140028788007BE
S315100451403AD02800FFF776F8002835D1002E02D081
S3151004515003CE083E24180098012834D12888C004A8
S3151004516016D52A003D32A969280000F053F8070025
S315100451706A6A002A00D12A69E968280000F04AF808
S31510045180E11B0C1AAA6AE968280000F043F8241AED
S31510045190002C06D1009800280AD10020C04384426E
S315100451A00AD0009A210003202856FCF7B9FD040002
S315100451B00020C043844209D1FCF7DCFE23210160A0
S315100451C00020C043F2BD0228E4D1EAE72888C021B2
S315100451D0890108420ED06868E8602861A86268618F
S315100451E06868E86228003D30A86128002430E86128
S315100451F000206862002E05D03000083003C82A004B
S31510045200303203C228880249014029800020F2BDA9
S31510045210FFCE0000914201D2501A70470020704709
S3151004522010B52C4C08212000FFF77CFF002809D06C
S315100452302948016880225202891801600821200039
S31510045240FFF76AFF10BD70B584B0002422480460CD
S315100452500121C0204001FDF72DF801A8FFF732FF08
S3151004526001A8022101700F21C170447001248470B9
S315100452701A4DC580174E01A93000FFF7DDFE29002F
S315100452803000FFF73BFF68461221017044708470AA
S31510045290FDF778F9012208213000FFF733FF04B037
S315100452A070BD10B50C4C0B48FFF72AFF60602068E0
S315100452B00A4940186168401A10BD80B50121054895
S315100452C0FFF708FF01BD80B500210248FFF702FF72
S315100452D001BD00000000D04020240020FFFF000084
S315100452E07047704738B50400E0686169884254D342
S315100452F021882B4A0A40022A09D0080402D58020A4
S31510045300800001E08420C001084320803FE0C025CE
S31510045310ED012940A94207D1A168884204D320008F
S31510045320FEF788FF002832D12088E90808421ED1EA
S31510045330606821003D31884219D180208000FBF736
S31510045340B3FD6060002806D120003D306060E06047
S31510045350401CA0600BE0218840220A432280E060B2
S31510045360802189004118A160A0626068E0626068CB
S315100453702061A0686061207840070BD502220021C5
S31510045380200000F00FF80021C943884202D1002002
S31510045390C04332BD208805432580002032BD00BF9E
S315100453A00290000070B50D001600FCF7C6FA040052
S315100453B033002A000021FFF7BDFE05002000FCF78C
S315100453C0D2FA280070BD7047696E74657272757072
S315100453D0745F656E61626C655F636F756E7465721A
S315100453E0203C2055494E5433325F4D41580000003D
S315100453F0433A5C55736572735C4769616E6C756389
S31510045400615C6D626564434C496465765C6D626586
S31510045410642D6F732D6769616E2D626C7565312D00
S315100454206230355C6D6265642D6F735C706C61748B
S31510045430666F726D5C6D6265645F637269746963CD
S31510045440616C2E6300000000696E7465727275706B
S3151004545074735F64697361626C65640000000000B4
S31510045460000000003150041035500410BD580410CB
S31510045470000000000000000027500410C8FFFFFFC2
S315100454800000000000000000000000000000000002
S31510045490DD4D04101D4E0410D94D041000000000FB
S315100454A0214E04100000000000000000000000005F
S315100454B000000000000000000000000000000000D2
S315100454C00000000000000000255004100000000039
S315100454D02F50041033500410C4FFFFFF00000000C7
S315100454E000000000000000000000000000000000A2
S315100454F0000000000000000000000000DD4D041054
